{
  "_format": "hh-sol-artifact-1",
  "contractName": "DexFactory",
  "sourceName": "contracts/swap/DexFactory.sol",
  "abi": [
    {
      "inputs": [
        {
          "internalType": "address",
          "name": "_feeToSetter",
          "type": "address"
        }
      ],
      "stateMutability": "nonpayable",
      "type": "constructor"
    },
    {
      "inputs": [
        {
          "internalType": "string",
          "name": "",
          "type": "string"
        }
      ],
      "name": "InvalidAddressParameters",
      "type": "error"
    },
    {
      "inputs": [],
      "name": "Unauthorized",
      "type": "error"
    },
    {
      "anonymous": false,
      "inputs": [
        {
          "indexed": true,
          "internalType": "address",
          "name": "token0",
          "type": "address"
        },
        {
          "indexed": true,
          "internalType": "address",
          "name": "token1",
          "type": "address"
        },
        {
          "indexed": false,
          "internalType": "address",
          "name": "pair",
          "type": "address"
        },
        {
          "indexed": false,
          "internalType": "uint256",
          "name": "",
          "type": "uint256"
        }
      ],
      "name": "PairCreated",
      "type": "event"
    },
    {
      "inputs": [],
      "name": "INIT",
      "outputs": [
        {
          "internalType": "bytes32",
          "name": "",
          "type": "bytes32"
        }
      ],
      "stateMutability": "view",
      "type": "function"
    },
    {
      "inputs": [
        {
          "internalType": "uint256",
          "name": "",
          "type": "uint256"
        }
      ],
      "name": "allPairs",
      "outputs": [
        {
          "internalType": "address",
          "name": "",
          "type": "address"
        }
      ],
      "stateMutability": "view",
      "type": "function"
    },
    {
      "inputs": [],
      "name": "allPairsLength",
      "outputs": [
        {
          "internalType": "uint256",
          "name": "",
          "type": "uint256"
        }
      ],
      "stateMutability": "view",
      "type": "function"
    },
    {
      "inputs": [
        {
          "internalType": "address",
          "name": "tokenA",
          "type": "address"
        },
        {
          "internalType": "address",
          "name": "tokenB",
          "type": "address"
        }
      ],
      "name": "createPair",
      "outputs": [
        {
          "internalType": "address",
          "name": "pair",
          "type": "address"
        }
      ],
      "stateMutability": "nonpayable",
      "type": "function"
    },
    {
      "inputs": [],
      "name": "feeTo",
      "outputs": [
        {
          "internalType": "address",
          "name": "",
          "type": "address"
        }
      ],
      "stateMutability": "view",
      "type": "function"
    },
    {
      "inputs": [],
      "name": "feeToSetter",
      "outputs": [
        {
          "internalType": "address",
          "name": "",
          "type": "address"
        }
      ],
      "stateMutability": "view",
      "type": "function"
    },
    {
      "inputs": [
        {
          "internalType": "address",
          "name": "",
          "type": "address"
        },
        {
          "internalType": "address",
          "name": "",
          "type": "address"
        }
      ],
      "name": "getPair",
      "outputs": [
        {
          "internalType": "address",
          "name": "",
          "type": "address"
        }
      ],
      "stateMutability": "view",
      "type": "function"
    },
    {
      "inputs": [
        {
          "internalType": "address",
          "name": "_feeTo",
          "type": "address"
        }
      ],
      "name": "setFeeTo",
      "outputs": [],
      "stateMutability": "nonpayable",
      "type": "function"
    },
    {
      "inputs": [
        {
          "internalType": "address",
          "name": "_feeToSetter",
          "type": "address"
        }
      ],
      "name": "setFeeToSetter",
      "outputs": [],
      "stateMutability": "nonpayable",
      "type": "function"
    }
  ],
  "bytecode": "0x608060405234801561001057600080fd5b50604051612f4d380380612f4d83398101604081905261002f91610054565b600180546001600160a01b0319166001600160a01b0392909216919091179055610084565b60006020828403121561006657600080fd5b81516001600160a01b038116811461007d57600080fd5b9392505050565b612eba806100936000396000f3fe608060405234801561001057600080fd5b50600436106100935760003560e01c8063a2e74af611610066578063a2e74af614610100578063c9c6539614610115578063e6a4390514610128578063ea6439141461015c578063f46901ed1461016457600080fd5b8063017e7e5814610098578063094b7415146100c85780631e3dd18b146100db578063574f2ba3146100ee575b600080fd5b6000546100ab906001600160a01b031681565b6040516001600160a01b0390911681526020015b60405180910390f35b6001546100ab906001600160a01b031681565b6100ab6100e936600461057a565b610177565b6003545b6040519081526020016100bf565b61011361010e3660046105af565b6101a1565b005b6100ab6101233660046105d1565b6101ed565b6100ab6101363660046105d1565b60026020908152600092835260408084209091529082529020546001600160a01b031681565b6100f26104d7565b6101136101723660046105af565b610521565b6003818154811061018757600080fd5b6000918252602090912001546001600160a01b0316905081565b6001546001600160a01b031633146101cb576040516282b42960e81b815260040160405180910390fd5b600180546001600160a01b0319166001600160a01b0392909216919091179055565b6000816001600160a01b0316836001600160a01b0316141561025757604051631fadb98760e11b815260206004820152601860248201527f4445583a204944454e544943414c5f414444524553534553000000000000000060448201526064015b60405180910390fd5b600080836001600160a01b0316856001600160a01b03161061027a57838561027d565b84845b90925090506001600160a01b0382166102cd57604051631fadb98760e11b81526020600482015260116024820152704445583a205a45524f5f4144445245535360781b604482015260640161024e565b6001600160a01b0382811660009081526002602090815260408083208585168452909152902054161561033657604051631fadb98760e11b815260206004820152601060248201526f4445583a20504149525f45584953545360801b604482015260640161024e565b6040516bffffffffffffffffffffffff19606084811b8216602084015283901b166034820152604801604051602081830303815290604052805190602001206040516103819061056d565b8190604051809103906000f59050801580156103a1573d6000803e3d6000fd5b5060405163485cc95560e01b81526001600160a01b03848116600483015283811660248301529194509084169063485cc95590604401600060405180830381600087803b1580156103f157600080fd5b505af1158015610405573d6000803e3d6000fd5b505050506001600160a01b0382811660008181526002602081815260408084208787168086529083528185208054978b166001600160a01b031998891681179091559383528185208686528352818520805488168517905560038054600181018255958190527fc2575a0e9e593c00f959f8c92f12db2869c3395a3b0502d05e2516446f71f85b9095018054909716841790965592548351928352908201527f0d3648bd0f6ba80134a33ba9275ac585d9d315f0ad8355cddefde31afa28d0e9910160405180910390a3505092915050565b6040516104e66020820161056d565b601f1982820381018352601f9091011660408190526105089190602001610604565b6040516020818303038152906040528051906020012081565b6001546001600160a01b0316331461054b576040516282b42960e81b815260040160405180910390fd5b600080546001600160a01b0319166001600160a01b0392909216919091179055565b6128458061064083390190565b60006020828403121561058c57600080fd5b5035919050565b80356001600160a01b03811681146105aa57600080fd5b919050565b6000602082840312156105c157600080fd5b6105ca82610593565b9392505050565b600080604083850312156105e457600080fd5b6105ed83610593565b91506105fb60208401610593565b90509250929050565b6000825160005b81811015610625576020818601810151858301520161060b565b81811115610634576000828501525b50919091019291505056fe60c06040526001600b553480156200001657600080fd5b50620000296301ffc9a760e01b62000116565b6200003b636578737160e01b62000116565b60408051808201825260078152660444558737761760cc1b6020918201528151808301835260018152603160f81b9082015281517f8b73c3c69bb8fe3d512ecc4cf759cc79239f7b179b0ffacaa9a75d522b39400f818301527f6a6f5684613219496cdd2a0ab3d28e0ea8c188284d27e24bf1d5bbe7fd5091e5818401527fc89efdaa54c0f20c7adf612882df0950f5a951637e0307cdcb4c672f298b8bc66060820152466080808301919091523060a08084019190915284518084038201815260c09093019094528151919092012090523390526200019a565b6001600160e01b03198082161415620001755760405162461bcd60e51b815260206004820152601b60248201527f4b495031333a20696e76616c696420696e746572666163652069640000000000604482015260640160405180910390fd5b6001600160e01b0319166000908152602081905260409020805460ff19166001179055565b60805160a051612670620001d5600039600081816104be01528181610b300152611c0b01526000818161036101526114a601526126706000f3fe608060405234801561001057600080fd5b50600436106101f05760003560e01c80636a6278421161010f578063ba9a7a56116100a2578063d505accf11610071578063d505accf146104f3578063dd62ed3e14610506578063eb79554914610531578063fff6cae91461054457600080fd5b8063ba9a7a561461049d578063bc25cf77146104a6578063c45a0155146104b9578063d21220a7146104e057600080fd5b806389afcb44116100de57806389afcb441461042a57806395d89b4114610452578063a9059cbb14610477578063b88d4fde1461048a57600080fd5b80636a627842146103ce57806370a08231146103e15780637464fc3d146104015780637ecebe001461040a57600080fd5b806330adf81f1161018757806342842e0e1161015657806342842e0e14610396578063485cc955146103a95780635909c0d5146103bc5780635a3d5493146103c557600080fd5b806330adf81f1461031b578063313ce567146103425780633644e5151461035c578063423f6cef1461038357600080fd5b8063095ea7b3116101c3578063095ea7b3146102b35780630dfe1681146102c657806318160ddd146102f157806323b872dd1461030857600080fd5b806301ffc9a7146101f5578063022c0d9f1461023757806306fdde031461024c5780630902f1ac1461027f575b600080fd5b610222610203366004611fd4565b6001600160e01b03191660009081526020819052604090205460ff1690565b60405190151581526020015b60405180910390f35b61024a610245366004612006565b61054c565b005b610272604051806040016040528060078152602001660444558737761760cc1b81525081565b60405161022e91906120f8565b610287610a35565b604080516001600160701b03948516815293909216602084015263ffffffff169082015260600161022e565b6102226102c136600461210b565b610a5f565b6005546102d9906001600160a01b031681565b6040516001600160a01b03909116815260200161022e565b6102fa60015481565b60405190815260200161022e565b610222610316366004612137565b610a75565b6102fa7f6e71edae12b1b97f4d1f60370fef10105fa2faae0126114a169c64845d6126c981565b61034a601281565b60405160ff909116815260200161022e565b6102fa7f000000000000000000000000000000000000000000000000000000000000000081565b61024a61039136600461210b565b610ae7565b61024a6103a4366004612137565b610b05565b61024a6103b7366004612178565b610b25565b6102fa60085481565b6102fa60095481565b6102fa6103dc3660046121b1565b610b9b565b6102fa6103ef3660046121b1565b60026020526000908152604090205481565b6102fa600a5481565b6102fa6104183660046121b1565b60046020526000908152604090205481565b61043d6104383660046121b1565b610e5f565b6040805192835260208301919091520161022e565b6102726040518060400160405280600681526020016504b6c61794c560d41b81525081565b61022261048536600461210b565b6111bc565b61024a610498366004612271565b6111c9565b6102fa6103e881565b61024a6104b43660046121b1565b611337565b6102d97f000000000000000000000000000000000000000000000000000000000000000081565b6006546102d9906001600160a01b031681565b61024a6105013660046122dd565b61144b565b6102fa610514366004612178565b600360209081526000928352604080842090915290825290205481565b61024a61053f366004612354565b61166d565b61024a6116c6565b600b5460011461056f576040516303cb96db60e21b815260040160405180910390fd5b6000600b5584158015610580575083155b156105d35760405163240bf61760e11b815260206004820152601f60248201527f4445583a20494e53554646494349454e545f4f55545055545f414d4f554e540060448201526064015b60405180910390fd5b6000806105de610a35565b5091509150816001600160701b0316871015806106045750806001600160701b03168610155b156106525760405163abd6d26960e01b815260206004820152601b60248201527f4445583a20494e53554646494349454e545f4c4951554944495459000000000060448201526064016105ca565b60055460065460009182916001600160a01b039182169190811690891682148061068d5750806001600160a01b0316896001600160a01b0316145b156106cd57604051631fadb98760e11b815260206004820152600f60248201526e4445583a20494e56414c49445f544f60881b60448201526064016105ca565b8a156106de576106de828a8d6117eb565b89156106ef576106ef818a8c6117eb565b861561075c576040516304347a1760e21b81526001600160a01b038a16906310d1e85c906107299033908f908f908e908e906004016123ad565b600060405180830381600087803b15801561074357600080fd5b505af1158015610757573d6000803e3d6000fd5b505050505b6040516370a0823160e01b81523060048201526001600160a01b038316906370a0823190602401602060405180830381865afa1580156107a0573d6000803e3d6000fd5b505050506040513d601f19601f820116820180604052508101906107c491906123f9565b6040516370a0823160e01b81523060048201529094506001600160a01b038216906370a0823190602401602060405180830381865afa15801561080b573d6000803e3d6000fd5b505050506040513d601f19601f8201168201806040525081019061082f91906123f9565b92505050600089856001600160701b031661084a9190612428565b8311610857576000610874565b61086a8a6001600160701b038716612428565b6108749084612428565b9050600061088b8a6001600160701b038716612428565b83116108985760006108b5565b6108ab8a6001600160701b038716612428565b6108b59084612428565b9050811580156108c3575080155b156109115760405163240bf61760e11b815260206004820152601e60248201527f4445583a20494e53554646494349454e545f494e5055545f414d4f554e54000060448201526064016105ca565b600061091e83600361243f565b61092a866103e861243f565b6109349190612428565b9050600061094383600361243f565b61094f866103e861243f565b6109599190612428565b90506109716001600160701b03808916908a1661243f565b61097e90620f424061243f565b610988828461243f565b10156109c05760405163240bf61760e11b81526020600482015260066024820152654445583a204b60d01b60448201526064016105ca565b50506109ce848488886118f6565b60408051838152602081018390529081018c9052606081018b90526001600160a01b038a169033907fd78ad95fa46c994b6551d0da85fc275fe613ce37657fb8d5e3d130840159d8229060800160405180910390a350506001600b55505050505050505050565b6007546001600160701b0380821692600160701b830490911691600160e01b900463ffffffff1690565b6000610a6c338484611a9d565b50600192915050565b6001600160a01b03831660009081526003602090815260408083203384529091528120546000198114610ad157610aac8382612428565b6001600160a01b03861660009081526003602090815260408083203384529091529020555b610adc858585611afe565b506001949350505050565b610b0182826040518060200160405280600081525061166d565b5050565b610b20838383604051806020016040528060008152506111c9565b505050565b336001600160a01b037f00000000000000000000000000000000000000000000000000000000000000001614610b6d576040516282b42960e81b815260040160405180910390fd5b600580546001600160a01b039384166001600160a01b03199182161790915560068054929093169116179055565b6000600b54600114610bc0576040516303cb96db60e21b815260040160405180910390fd5b6000600b81905580610bd0610a35565b506005546040516370a0823160e01b81523060048201529294509092506000916001600160a01b03909116906370a0823190602401602060405180830381865afa158015610c22573d6000803e3d6000fd5b505050506040513d601f19601f82011682018060405250810190610c4691906123f9565b6006546040516370a0823160e01b81523060048201529192506000916001600160a01b03909116906370a0823190602401602060405180830381865afa158015610c94573d6000803e3d6000fd5b505050506040513d601f19601f82011682018060405250810190610cb891906123f9565b90506000610ccf6001600160701b03861684612428565b90506000610ce66001600160701b03861684612428565b90506000610cf48787611c06565b60015490915080610d32576103e8610d14610d0f858761243f565b611d50565b610d1e9190612428565b9850610d2d60006103e8611dc0565b610d79565b610d766001600160701b038916610d49838761243f565b610d539190612474565b6001600160701b038916610d67848761243f565b610d719190612474565b611e52565b98505b88610dd25760405163abd6d26960e01b815260206004820152602260248201527f4445583a20494e53554646494349454e545f4c49515549444954595f4d494e54604482015261115160f21b60648201526084016105ca565b610ddc8a8a611dc0565b610de886868a8a6118f6565b8115610e1157600754610e0d906001600160701b03600160701b82048116911661243f565b600a555b604080518581526020810185905233917f4c209b5fc8ad50758f13e2e1088ba56a560dff690a1c6fef26394f4c03821c4f910160405180910390a250506001600b5550949695505050505050565b600080600b54600114610e85576040516303cb96db60e21b815260040160405180910390fd5b6000600b81905580610e95610a35565b506005546006546040516370a0823160e01b81523060048201529395509193506001600160a01b039081169291169060009083906370a0823190602401602060405180830381865afa158015610eef573d6000803e3d6000fd5b505050506040513d601f19601f82011682018060405250810190610f1391906123f9565b6040516370a0823160e01b81523060048201529091506000906001600160a01b038416906370a0823190602401602060405180830381865afa158015610f5d573d6000803e3d6000fd5b505050506040513d601f19601f82011682018060405250810190610f8191906123f9565b30600090815260026020526040812054919250610f9e8888611c06565b60015490915080610faf868561243f565b610fb99190612474565b9a5080610fc6858561243f565b610fd09190612474565b99508a1580610fdd575089155b156110365760405163abd6d26960e01b815260206004820152602260248201527f4445583a20494e53554646494349454e545f4c49515549444954595f4255524e604482015261115160f21b60648201526084016105ca565b6110403084611e6a565b61104b878d8d6117eb565b611056868d8c6117eb565b6040516370a0823160e01b81523060048201526001600160a01b038816906370a0823190602401602060405180830381865afa15801561109a573d6000803e3d6000fd5b505050506040513d601f19601f820116820180604052508101906110be91906123f9565b6040516370a0823160e01b81523060048201529095506001600160a01b038716906370a0823190602401602060405180830381865afa158015611105573d6000803e3d6000fd5b505050506040513d601f19601f8201168201806040525081019061112991906123f9565b935061113785858b8b6118f6565b81156111605760075461115c906001600160701b03600160701b82048116911661243f565b600a555b604080518c8152602081018c90526001600160a01b038e169133917fdccd412f0b1252819cb1fd330b93224ca42612892bb3f4f789976e6d81936496910160405180910390a35050505050505050506001600b81905550915091565b6000610a6c338484611afe565b6001600160a01b03841661122b5760405162461bcd60e51b8152602060048201526024808201527f4b4950373a207472616e736665722066726f6d20746865207a65726f206164646044820152637265737360e01b60648201526084016105ca565b6001600160a01b0383166112515760405162461bcd60e51b81526004016105ca90612488565b6001600160a01b038416600090815260036020908152604080832033845290915290205460001981146112fd57828110156112ce5760405162461bcd60e51b815260206004820152601c60248201527f4b4950373a20696e73756666696369656e7420616c6c6f77616e63650000000060448201526064016105ca565b6112d88382612428565b6001600160a01b03861660009081526003602090815260408083203384529091529020555b611308858585611afe565b61131485858585611ef6565b6113305760405162461bcd60e51b81526004016105ca906124ca565b5050505050565b600b5460011461135a576040516303cb96db60e21b815260040160405180910390fd5b6000600b556005546006546007546040516370a0823160e01b81523060048201526001600160a01b0393841693909216916113f991849186916001600160701b03169083906370a08231906024015b602060405180830381865afa1580156113c6573d6000803e3d6000fd5b505050506040513d601f19601f820116820180604052508101906113ea91906123f9565b6113f49190612428565b6117eb565b6007546040516370a0823160e01b81523060048201526114419183918691600160701b90046001600160701b0316906001600160a01b038416906370a08231906024016113a9565b50506001600b5550565b4284101561148a5760405162461bcd60e51b815260206004820152600c60248201526b1111560e881156141254915160a21b60448201526064016105ca565b6001600160a01b038716600090815260046020526040812080547f0000000000000000000000000000000000000000000000000000000000000000917f6e71edae12b1b97f4d1f60370fef10105fa2faae0126114a169c64845d6126c9918b918b918b91876114f883612518565b909155506040805160208101969096526001600160a01b0394851690860152929091166060840152608083015260a082015260c0810187905260e0016040516020818303038152906040528051906020012060405160200161157192919061190160f01b81526002810192909252602282015260420190565b60408051601f198184030181528282528051602091820120600080855291840180845281905260ff88169284019290925260608301869052608083018590529092509060019060a0016020604051602081039080840390855afa1580156115dc573d6000803e3d6000fd5b5050604051601f1901519150506001600160a01b038116158015906116125750886001600160a01b0316816001600160a01b0316145b6116575760405162461bcd60e51b81526020600482015260166024820152754445583a20494e56414c49445f5349474e415455524560501b60448201526064016105ca565b611662898989611a9d565b505050505050505050565b6001600160a01b0383166116935760405162461bcd60e51b81526004016105ca90612488565b61169e338484611afe565b6116aa33848484611ef6565b610b205760405162461bcd60e51b81526004016105ca906124ca565b600b546001146116e9576040516303cb96db60e21b815260040160405180910390fd5b6000600b556005546040516370a0823160e01b81523060048201526117e4916001600160a01b0316906370a0823190602401602060405180830381865afa158015611738573d6000803e3d6000fd5b505050506040513d601f19601f8201168201806040525081019061175c91906123f9565b6006546040516370a0823160e01b81523060048201526001600160a01b03909116906370a0823190602401602060405180830381865afa1580156117a4573d6000803e3d6000fd5b505050506040513d601f19601f820116820180604052508101906117c891906123f9565b6007546001600160701b0380821691600160701b9004166118f6565b6001600b55565b604080516001600160a01b038481166024830152604480830185905283518084039091018152606490920183526020820180516001600160e01b031663a9059cbb60e01b17905291516000928392908716916118479190612533565b6000604051808303816000865af19150503d8060008114611884576040519150601f19603f3d011682016040523d82523d6000602084013e611889565b606091505b50915091508180156118b35750805115806118b35750808060200190518101906118b3919061254f565b6113305760405162461bcd60e51b81526020600482015260146024820152731111560e881514905394d1915497d1905253115160621b60448201526064016105ca565b6001600160701b0384118061191157506001600160701b0383115b1561192f57604051631a93c68960e11b815260040160405180910390fd5b600061194064010000000042612571565b60075490915063ffffffff600160e01b909104811682039081161580159061197057506001600160701b03841615155b801561198457506001600160701b03831615155b15611a055763ffffffff81166119b585607086901b600160701b600160e01b03165b6001600160e01b031690611fa6565b600880546001600160e01b03929092169290920201905563ffffffff81166119ed84607087901b600160701b600160e01b03166119a6565b600980546001600160e01b0392909216929092020190555b506007805463ffffffff8316600160e01b026001600160e01b036001600160701b03888116600160701b9081026001600160e01b03199095168b83161794909417918216831794859055604080519382169282169290921783529290930490911660208201527f1c411e9a96e071241c2f21f7726b17ae89e3cab4c78be50e062b03a9fffbbad1910160405180910390a15050505050565b6001600160a01b0383811660008181526003602090815260408083209487168084529482529182902085905590518481527f8c5be1e5ebec7d5bd14f71427d1e84f3dd0314c0f7b2291e5b200ac8c7c3b925910160405180910390a3505050565b6001600160a01b03831660009081526002602052604090205481811015611b755760405162461bcd60e51b815260206004820152602560248201527f4b4950373a207472616e7366657220616d6f756e7420657863656564732062616044820152646c616e636560d81b60648201526084016105ca565b6001600160a01b03808516600090815260026020526040808220858503905591851681529081208054849290611bac908490612585565b92505081905550826001600160a01b0316846001600160a01b03167fddf252ad1be2c89b69c2b068fc378daa952ba7f163c4a11628f55a4df523b3ef84604051611bf891815260200190565b60405180910390a350505050565b6000807f00000000000000000000000000000000000000000000000000000000000000006001600160a01b031663017e7e586040518163ffffffff1660e01b8152600401602060405180830381865afa158015611c67573d6000803e3d6000fd5b505050506040513d601f19601f82011682018060405250810190611c8b919061259d565b600a546001600160a01b038216158015945091925090611d3c578015611d37576000611cc6610d0f6001600160701b0380881690891661243f565b90506000611cd383611d50565b905080821115611d34576000611ce98284612428565b600154611cf6919061243f565b9050600082611d0685600561243f565b611d109190612585565b90506000611d1e8284612474565b90508015611d3057611d308782611dc0565b5050505b50505b611d48565b8015611d48576000600a555b505092915050565b60006003821115611db15750806000611d6a600283612474565b611d75906001612585565b90505b81811015611dab57905080600281611d908186612474565b611d9a9190612585565b611da49190612474565b9050611d78565b50919050565b8115611dbb575060015b919050565b80600154611dce9190612585565b6001556001600160a01b038216600090815260026020526040902054611df5908290612585565b6001600160a01b0383166000818152600260205260408082209390935591519091907fddf252ad1be2c89b69c2b068fc378daa952ba7f163c4a11628f55a4df523b3ef90611e469085815260200190565b60405180910390a35050565b6000818310611e615781611e63565b825b9392505050565b6001600160a01b038216600090815260026020526040902054611e8e908290612428565b6001600160a01b038316600090815260026020526040902055600154611eb5908290612428565b6001556040518181526000906001600160a01b038416907fddf252ad1be2c89b69c2b068fc378daa952ba7f163c4a11628f55a4df523b3ef90602001611e46565b60006001600160a01b0384163b611f0f57506001611f9e565b604051634e8c461160e11b81526000906001600160a01b03861690639d188c2290611f449033908a90899089906004016125ba565b6020604051808303816000875af1158015611f63573d6000803e3d6000fd5b505050506040513d601f19601f82011682018060405250810190611f8791906125f7565b6001600160e01b031916634e8c461160e11b149150505b949350505050565b6000611e636001600160701b03831684612614565b6001600160e01b031981168114611fd157600080fd5b50565b600060208284031215611fe657600080fd5b8135611e6381611fbb565b6001600160a01b0381168114611fd157600080fd5b60008060008060006080868803121561201e57600080fd5b8535945060208601359350604086013561203781611ff1565b9250606086013567ffffffffffffffff8082111561205457600080fd5b818801915088601f83011261206857600080fd5b81358181111561207757600080fd5b89602082850101111561208957600080fd5b9699959850939650602001949392505050565b60005b838110156120b757818101518382015260200161209f565b838111156120c6576000848401525b50505050565b600081518084526120e481602086016020860161209c565b601f01601f19169290920160200192915050565b602081526000611e6360208301846120cc565b6000806040838503121561211e57600080fd5b823561212981611ff1565b946020939093013593505050565b60008060006060848603121561214c57600080fd5b833561215781611ff1565b9250602084013561216781611ff1565b929592945050506040919091013590565b6000806040838503121561218b57600080fd5b823561219681611ff1565b915060208301356121a681611ff1565b809150509250929050565b6000602082840312156121c357600080fd5b8135611e6381611ff1565b634e487b7160e01b600052604160045260246000fd5b600082601f8301126121f557600080fd5b813567ffffffffffffffff80821115612210576122106121ce565b604051601f8301601f19908116603f01168101908282118183101715612238576122386121ce565b8160405283815286602085880101111561225157600080fd5b836020870160208301376000602085830101528094505050505092915050565b6000806000806080858703121561228757600080fd5b843561229281611ff1565b935060208501356122a281611ff1565b925060408501359150606085013567ffffffffffffffff8111156122c557600080fd5b6122d1878288016121e4565b91505092959194509250565b600080600080600080600060e0888a0312156122f857600080fd5b873561230381611ff1565b9650602088013561231381611ff1565b95506040880135945060608801359350608088013560ff8116811461233757600080fd5b9699959850939692959460a0840135945060c09093013592915050565b60008060006060848603121561236957600080fd5b833561237481611ff1565b925060208401359150604084013567ffffffffffffffff81111561239757600080fd5b6123a3868287016121e4565b9150509250925092565b60018060a01b038616815284602082015283604082015260806060820152816080820152818360a0830137600081830160a090810191909152601f909201601f19160101949350505050565b60006020828403121561240b57600080fd5b5051919050565b634e487b7160e01b600052601160045260246000fd5b60008282101561243a5761243a612412565b500390565b600081600019048311821515161561245957612459612412565b500290565b634e487b7160e01b600052601260045260246000fd5b6000826124835761248361245e565b500490565b60208082526022908201527f4b4950373a207472616e7366657220746f20746865207a65726f206164647265604082015261737360f01b606082015260800190565b6020808252602e908201527f4b4950373a207472616e7366657220746f206e6f6e204b49503752656365697660408201526d32b91034b6b83632b6b2b73a32b960911b606082015260800190565b600060001982141561252c5761252c612412565b5060010190565b6000825161254581846020870161209c565b9190910192915050565b60006020828403121561256157600080fd5b81518015158114611e6357600080fd5b6000826125805761258061245e565b500690565b6000821982111561259857612598612412565b500190565b6000602082840312156125af57600080fd5b8151611e6381611ff1565b6001600160a01b03858116825284166020820152604081018390526080606082018190526000906125ed908301846120cc565b9695505050505050565b60006020828403121561260957600080fd5b8151611e6381611fbb565b60006001600160e01b038381168061262e5761262e61245e565b9216919091049291505056fea2646970667358221220902e645b97cadec0b063a90ebf6ae59cfdd033c502f3f2987a35bf8ed3259e9f64736f6c634300080c0033a2646970667358221220c948facaf04e8367ae4030266908ffcf7e64b501b40b3274e39e286e092bfab364736f6c634300080c0033",
  "linkReferences": {},
  "deployedLinkReferences": {}
}