{
  "_format": "hh-sol-artifact-1",
  "contractName": "KIP7",
  "sourceName": "contracts/tokens/KIP7.sol",
  "abi": [
    {
      "inputs": [
        {
          "internalType": "string",
          "name": "name_",
          "type": "string"
        },
        {
          "internalType": "string",
          "name": "symbol_",
          "type": "string"
        },
        {
          "internalType": "uint8",
          "name": "decimals_",
          "type": "uint8"
        }
      ],
      "stateMutability": "nonpayable",
      "type": "constructor"
    },
    {
      "anonymous": false,
      "inputs": [
        {
          "indexed": true,
          "internalType": "address",
          "name": "owner",
          "type": "address"
        },
        {
          "indexed": true,
          "internalType": "address",
          "name": "spender",
          "type": "address"
        },
        {
          "indexed": false,
          "internalType": "uint256",
          "name": "value",
          "type": "uint256"
        }
      ],
      "name": "Approval",
      "type": "event"
    },
    {
      "anonymous": false,
      "inputs": [
        {
          "indexed": true,
          "internalType": "address",
          "name": "from",
          "type": "address"
        },
        {
          "indexed": true,
          "internalType": "address",
          "name": "to",
          "type": "address"
        },
        {
          "indexed": false,
          "internalType": "uint256",
          "name": "value",
          "type": "uint256"
        }
      ],
      "name": "Transfer",
      "type": "event"
    },
    {
      "inputs": [
        {
          "internalType": "address",
          "name": "owner",
          "type": "address"
        },
        {
          "internalType": "address",
          "name": "spender",
          "type": "address"
        }
      ],
      "name": "allowance",
      "outputs": [
        {
          "internalType": "uint256",
          "name": "",
          "type": "uint256"
        }
      ],
      "stateMutability": "view",
      "type": "function"
    },
    {
      "inputs": [
        {
          "internalType": "address",
          "name": "spender",
          "type": "address"
        },
        {
          "internalType": "uint256",
          "name": "amount",
          "type": "uint256"
        }
      ],
      "name": "approve",
      "outputs": [
        {
          "internalType": "bool",
          "name": "",
          "type": "bool"
        }
      ],
      "stateMutability": "nonpayable",
      "type": "function"
    },
    {
      "inputs": [
        {
          "internalType": "address",
          "name": "account",
          "type": "address"
        }
      ],
      "name": "balanceOf",
      "outputs": [
        {
          "internalType": "uint256",
          "name": "",
          "type": "uint256"
        }
      ],
      "stateMutability": "view",
      "type": "function"
    },
    {
      "inputs": [],
      "name": "decimals",
      "outputs": [
        {
          "internalType": "uint8",
          "name": "",
          "type": "uint8"
        }
      ],
      "stateMutability": "view",
      "type": "function"
    },
    {
      "inputs": [],
      "name": "name",
      "outputs": [
        {
          "internalType": "string",
          "name": "",
          "type": "string"
        }
      ],
      "stateMutability": "view",
      "type": "function"
    },
    {
      "inputs": [
        {
          "internalType": "address",
          "name": "recipient",
          "type": "address"
        },
        {
          "internalType": "uint256",
          "name": "amount",
          "type": "uint256"
        }
      ],
      "name": "safeTransfer",
      "outputs": [],
      "stateMutability": "nonpayable",
      "type": "function"
    },
    {
      "inputs": [
        {
          "internalType": "address",
          "name": "recipient",
          "type": "address"
        },
        {
          "internalType": "uint256",
          "name": "amount",
          "type": "uint256"
        },
        {
          "internalType": "bytes",
          "name": "data",
          "type": "bytes"
        }
      ],
      "name": "safeTransfer",
      "outputs": [],
      "stateMutability": "nonpayable",
      "type": "function"
    },
    {
      "inputs": [
        {
          "internalType": "address",
          "name": "sender",
          "type": "address"
        },
        {
          "internalType": "address",
          "name": "recipient",
          "type": "address"
        },
        {
          "internalType": "uint256",
          "name": "amount",
          "type": "uint256"
        }
      ],
      "name": "safeTransferFrom",
      "outputs": [],
      "stateMutability": "nonpayable",
      "type": "function"
    },
    {
      "inputs": [
        {
          "internalType": "address",
          "name": "sender",
          "type": "address"
        },
        {
          "internalType": "address",
          "name": "recipient",
          "type": "address"
        },
        {
          "internalType": "uint256",
          "name": "amount",
          "type": "uint256"
        },
        {
          "internalType": "bytes",
          "name": "data",
          "type": "bytes"
        }
      ],
      "name": "safeTransferFrom",
      "outputs": [],
      "stateMutability": "nonpayable",
      "type": "function"
    },
    {
      "inputs": [
        {
          "internalType": "bytes4",
          "name": "interfaceId",
          "type": "bytes4"
        }
      ],
      "name": "supportsInterface",
      "outputs": [
        {
          "internalType": "bool",
          "name": "",
          "type": "bool"
        }
      ],
      "stateMutability": "view",
      "type": "function"
    },
    {
      "inputs": [],
      "name": "symbol",
      "outputs": [
        {
          "internalType": "string",
          "name": "",
          "type": "string"
        }
      ],
      "stateMutability": "view",
      "type": "function"
    },
    {
      "inputs": [],
      "name": "totalSupply",
      "outputs": [
        {
          "internalType": "uint256",
          "name": "",
          "type": "uint256"
        }
      ],
      "stateMutability": "view",
      "type": "function"
    },
    {
      "inputs": [
        {
          "internalType": "address",
          "name": "to",
          "type": "address"
        },
        {
          "internalType": "uint256",
          "name": "amount",
          "type": "uint256"
        }
      ],
      "name": "transfer",
      "outputs": [
        {
          "internalType": "bool",
          "name": "",
          "type": "bool"
        }
      ],
      "stateMutability": "nonpayable",
      "type": "function"
    },
    {
      "inputs": [
        {
          "internalType": "address",
          "name": "from",
          "type": "address"
        },
        {
          "internalType": "address",
          "name": "to",
          "type": "address"
        },
        {
          "internalType": "uint256",
          "name": "amount",
          "type": "uint256"
        }
      ],
      "name": "transferFrom",
      "outputs": [
        {
          "internalType": "bool",
          "name": "",
          "type": "bool"
        }
      ],
      "stateMutability": "nonpayable",
      "type": "function"
    }
  ],
  "bytecode": "0x60806040523480156200001157600080fd5b5060405162000fd538038062000fd58339810160408190526200003491620002a5565b620000466301ffc9a760e01b620000ae565b82516200005b90600490602086019062000132565b5081516200007190600590602085019062000132565b506006805460ff191660ff831617905562000093636578737160e01b620000ae565b620000a563a219a02560e01b620000ae565b50505062000367565b6001600160e01b031980821614156200010d5760405162461bcd60e51b815260206004820152601b60248201527f4b495031333a20696e76616c696420696e746572666163652069640000000000604482015260640160405180910390fd5b6001600160e01b0319166000908152602081905260409020805460ff19166001179055565b82805462000140906200032a565b90600052602060002090601f016020900481019282620001645760008555620001af565b82601f106200017f57805160ff1916838001178555620001af565b82800160010185558215620001af579182015b82811115620001af57825182559160200191906001019062000192565b50620001bd929150620001c1565b5090565b5b80821115620001bd5760008155600101620001c2565b634e487b7160e01b600052604160045260246000fd5b600082601f8301126200020057600080fd5b81516001600160401b03808211156200021d576200021d620001d8565b604051601f8301601f19908116603f01168101908282118183101715620002485762000248620001d8565b816040528381526020925086838588010111156200026557600080fd5b600091505b838210156200028957858201830151818301840152908201906200026a565b838211156200029b5760008385830101525b9695505050505050565b600080600060608486031215620002bb57600080fd5b83516001600160401b0380821115620002d357600080fd5b620002e187838801620001ee565b94506020860151915080821115620002f857600080fd5b506200030786828701620001ee565b925050604084015160ff811681146200031f57600080fd5b809150509250925092565b600181811c908216806200033f57607f821691505b602082108114156200036157634e487b7160e01b600052602260045260246000fd5b50919050565b610c5e80620003776000396000f3fe608060405234801561001057600080fd5b50600436106100ea5760003560e01c806342842e0e1161008c578063a9059cbb11610066578063a9059cbb146101ec578063b88d4fde146101ff578063dd62ed3e14610212578063eb7955491461024b57600080fd5b806342842e0e146101a857806370a08231146101bb57806395d89b41146101e457600080fd5b806318160ddd116100c857806318160ddd1461015957806323b872dd1461016b578063313ce5671461017e578063423f6cef1461019357600080fd5b806301ffc9a7146100ef57806306fdde0314610131578063095ea7b314610146575b600080fd5b61011c6100fd36600461084a565b6001600160e01b03191660009081526020819052604090205460ff1690565b60405190151581526020015b60405180910390f35b61013961025e565b60405161012891906108bb565b61011c6101543660046108ea565b6102f0565b6003545b604051908152602001610128565b61011c610179366004610914565b610306565b60065460405160ff9091168152602001610128565b6101a66101a13660046108ea565b6103cd565b005b6101a66101b6366004610914565b6103eb565b61015d6101c9366004610950565b6001600160a01b031660009081526001602052604090205490565b61013961040b565b61011c6101fa3660046108ea565b61041a565b6101a661020d366004610a0e565b610427565b61015d610220366004610a76565b6001600160a01b03918216600090815260026020908152604080832093909416825291909152205490565b6101a6610259366004610aa9565b610461565b60606004805461026d90610b00565b80601f016020809104026020016040519081016040528092919081815260200182805461029990610b00565b80156102e65780601f106102bb576101008083540402835291602001916102e6565b820191906000526020600020905b8154815290600101906020018083116102c957829003601f168201915b5050505050905090565b60006102fd338484610494565b50600192915050565b6001600160a01b038316600090815260026020908152604080832033845290915281205460001981146103b757828110156103885760405162461bcd60e51b815260206004820152601c60248201527f4b4950373a20696e73756666696369656e7420616c6c6f77616e63650000000060448201526064015b60405180910390fd5b6103928382610b51565b6001600160a01b03861660009081526002602090815260408083203384529091529020555b6103c28585856105b7565b506001949350505050565b6103e7828260405180602001604052806000815250610461565b5050565b61040683838360405180602001604052806000815250610427565b505050565b60606005805461026d90610b00565b60006102fd3384846105b7565b610432848484610306565b5061043f84848484610781565b61045b5760405162461bcd60e51b815260040161037f90610b68565b50505050565b61046b838361041a565b5061047833848484610781565b6104065760405162461bcd60e51b815260040161037f90610b68565b6001600160a01b0383166104f65760405162461bcd60e51b815260206004820152602360248201527f4b4950373a20617070726f76652066726f6d20746865207a65726f206164647260448201526265737360e81b606482015260840161037f565b6001600160a01b0382166105565760405162461bcd60e51b815260206004820152602160248201527f4b4950373a20617070726f766520746f20746865207a65726f206164647265736044820152607360f81b606482015260840161037f565b6001600160a01b0383811660008181526002602090815260408083209487168084529482529182902085905590518481527f8c5be1e5ebec7d5bd14f71427d1e84f3dd0314c0f7b2291e5b200ac8c7c3b925910160405180910390a3505050565b6001600160a01b0383166106195760405162461bcd60e51b8152602060048201526024808201527f4b4950373a207472616e736665722066726f6d20746865207a65726f206164646044820152637265737360e01b606482015260840161037f565b6001600160a01b03821661067a5760405162461bcd60e51b815260206004820152602260248201527f4b4950373a207472616e7366657220746f20746865207a65726f206164647265604482015261737360f01b606482015260840161037f565b6001600160a01b038316600090815260016020526040902054818110156106f15760405162461bcd60e51b815260206004820152602560248201527f4b4950373a207472616e7366657220616d6f756e7420657863656564732062616044820152646c616e636560d81b606482015260840161037f565b6001600160a01b03808516600090815260016020526040808220858503905591851681529081208054849290610728908490610bb6565b92505081905550826001600160a01b0316846001600160a01b03167fddf252ad1be2c89b69c2b068fc378daa952ba7f163c4a11628f55a4df523b3ef8460405161077491815260200190565b60405180910390a361045b565b60006001600160a01b0384163b61079a57506001610829565b604051634e8c461160e11b81526000906001600160a01b03861690639d188c22906107cf9033908a9089908990600401610bce565b6020604051808303816000875af11580156107ee573d6000803e3d6000fd5b505050506040513d601f19601f820116820180604052508101906108129190610c0b565b6001600160e01b031916634e8c461160e11b149150505b949350505050565b6001600160e01b03198116811461084757600080fd5b50565b60006020828403121561085c57600080fd5b813561086781610831565b9392505050565b6000815180845260005b8181101561089457602081850181015186830182015201610878565b818111156108a6576000602083870101525b50601f01601f19169290920160200192915050565b602081526000610867602083018461086e565b80356001600160a01b03811681146108e557600080fd5b919050565b600080604083850312156108fd57600080fd5b610906836108ce565b946020939093013593505050565b60008060006060848603121561092957600080fd5b610932846108ce565b9250610940602085016108ce565b9150604084013590509250925092565b60006020828403121561096257600080fd5b610867826108ce565b634e487b7160e01b600052604160045260246000fd5b600082601f83011261099257600080fd5b813567ffffffffffffffff808211156109ad576109ad61096b565b604051601f8301601f19908116603f011681019082821181831017156109d5576109d561096b565b816040528381528660208588010111156109ee57600080fd5b836020870160208301376000602085830101528094505050505092915050565b60008060008060808587031215610a2457600080fd5b610a2d856108ce565b9350610a3b602086016108ce565b925060408501359150606085013567ffffffffffffffff811115610a5e57600080fd5b610a6a87828801610981565b91505092959194509250565b60008060408385031215610a8957600080fd5b610a92836108ce565b9150610aa0602084016108ce565b90509250929050565b600080600060608486031215610abe57600080fd5b610ac7846108ce565b925060208401359150604084013567ffffffffffffffff811115610aea57600080fd5b610af686828701610981565b9150509250925092565b600181811c90821680610b1457607f821691505b60208210811415610b3557634e487b7160e01b600052602260045260246000fd5b50919050565b634e487b7160e01b600052601160045260246000fd5b600082821015610b6357610b63610b3b565b500390565b6020808252602e908201527f4b4950373a207472616e7366657220746f206e6f6e204b49503752656365697660408201526d32b91034b6b83632b6b2b73a32b960911b606082015260800190565b60008219821115610bc957610bc9610b3b565b500190565b6001600160a01b0385811682528416602082015260408101839052608060608201819052600090610c019083018461086e565b9695505050505050565b600060208284031215610c1d57600080fd5b81516108678161083156fea2646970667358221220f4d069bb7242a73cfb74adc5d10cfb4e370b05cbb61ab6bf7cc6df0bc4dae28b64736f6c634300080c0033",
  "linkReferences": {},
  "deployedLinkReferences": {}
}