{
  "_format": "hh-sol-artifact-1",
  "contractName": "Multicall",
  "sourceName": "contracts/farming/MultiCall.sol",
  "abi": [
    {
      "inputs": [
        {
          "components": [
            {
              "internalType": "address",
              "name": "target",
              "type": "address"
            },
            {
              "internalType": "bytes",
              "name": "callData",
              "type": "bytes"
            }
          ],
          "internalType": "struct Multicall.Call[]",
          "name": "calls",
          "type": "tuple[]"
        }
      ],
      "name": "aggregate",
      "outputs": [
        {
          "internalType": "uint256",
          "name": "blockNumber",
          "type": "uint256"
        },
        {
          "internalType": "bytes[]",
          "name": "returnData",
          "type": "bytes[]"
        }
      ],
      "stateMutability": "nonpayable",
      "type": "function"
    },
    {
      "inputs": [
        {
          "components": [
            {
              "internalType": "address",
              "name": "target",
              "type": "address"
            },
            {
              "internalType": "bytes",
              "name": "callData",
              "type": "bytes"
            }
          ],
          "internalType": "struct Multicall.Call[]",
          "name": "calls",
          "type": "tuple[]"
        }
      ],
      "name": "blockAndAggregate",
      "outputs": [
        {
          "internalType": "uint256",
          "name": "blockNumber",
          "type": "uint256"
        },
        {
          "internalType": "bytes32",
          "name": "blockHash",
          "type": "bytes32"
        },
        {
          "components": [
            {
              "internalType": "bool",
              "name": "success",
              "type": "bool"
            },
            {
              "internalType": "bytes",
              "name": "returnData",
              "type": "bytes"
            }
          ],
          "internalType": "struct Multicall.Result[]",
          "name": "returnData",
          "type": "tuple[]"
        }
      ],
      "stateMutability": "nonpayable",
      "type": "function"
    },
    {
      "inputs": [
        {
          "internalType": "uint256",
          "name": "blockNumber",
          "type": "uint256"
        }
      ],
      "name": "getBlockHash",
      "outputs": [
        {
          "internalType": "bytes32",
          "name": "blockHash",
          "type": "bytes32"
        }
      ],
      "stateMutability": "view",
      "type": "function"
    },
    {
      "inputs": [],
      "name": "getBlockNumber",
      "outputs": [
        {
          "internalType": "uint256",
          "name": "blockNumber",
          "type": "uint256"
        }
      ],
      "stateMutability": "view",
      "type": "function"
    },
    {
      "inputs": [],
      "name": "getCurrentBlockCoinbase",
      "outputs": [
        {
          "internalType": "address",
          "name": "coinbase",
          "type": "address"
        }
      ],
      "stateMutability": "view",
      "type": "function"
    },
    {
      "inputs": [],
      "name": "getCurrentBlockDifficulty",
      "outputs": [
        {
          "internalType": "uint256",
          "name": "difficulty",
          "type": "uint256"
        }
      ],
      "stateMutability": "view",
      "type": "function"
    },
    {
      "inputs": [],
      "name": "getCurrentBlockGasLimit",
      "outputs": [
        {
          "internalType": "uint256",
          "name": "gaslimit",
          "type": "uint256"
        }
      ],
      "stateMutability": "view",
      "type": "function"
    },
    {
      "inputs": [],
      "name": "getCurrentBlockTimestamp",
      "outputs": [
        {
          "internalType": "uint256",
          "name": "timestamp",
          "type": "uint256"
        }
      ],
      "stateMutability": "view",
      "type": "function"
    },
    {
      "inputs": [
        {
          "internalType": "address",
          "name": "addr",
          "type": "address"
        }
      ],
      "name": "getEthBalance",
      "outputs": [
        {
          "internalType": "uint256",
          "name": "balance",
          "type": "uint256"
        }
      ],
      "stateMutability": "view",
      "type": "function"
    },
    {
      "inputs": [],
      "name": "getLastBlockHash",
      "outputs": [
        {
          "internalType": "bytes32",
          "name": "blockHash",
          "type": "bytes32"
        }
      ],
      "stateMutability": "view",
      "type": "function"
    },
    {
      "inputs": [
        {
          "internalType": "bool",
          "name": "requireSuccess",
          "type": "bool"
        },
        {
          "components": [
            {
              "internalType": "address",
              "name": "target",
              "type": "address"
            },
            {
              "internalType": "bytes",
              "name": "callData",
              "type": "bytes"
            }
          ],
          "internalType": "struct Multicall.Call[]",
          "name": "calls",
          "type": "tuple[]"
        }
      ],
      "name": "tryAggregate",
      "outputs": [
        {
          "components": [
            {
              "internalType": "bool",
              "name": "success",
              "type": "bool"
            },
            {
              "internalType": "bytes",
              "name": "returnData",
              "type": "bytes"
            }
          ],
          "internalType": "struct Multicall.Result[]",
          "name": "returnData",
          "type": "tuple[]"
        }
      ],
      "stateMutability": "nonpayable",
      "type": "function"
    },
    {
      "inputs": [
        {
          "internalType": "bool",
          "name": "requireSuccess",
          "type": "bool"
        },
        {
          "components": [
            {
              "internalType": "address",
              "name": "target",
              "type": "address"
            },
            {
              "internalType": "bytes",
              "name": "callData",
              "type": "bytes"
            }
          ],
          "internalType": "struct Multicall.Call[]",
          "name": "calls",
          "type": "tuple[]"
        }
      ],
      "name": "tryBlockAndAggregate",
      "outputs": [
        {
          "internalType": "uint256",
          "name": "blockNumber",
          "type": "uint256"
        },
        {
          "internalType": "bytes32",
          "name": "blockHash",
          "type": "bytes32"
        },
        {
          "components": [
            {
              "internalType": "bool",
              "name": "success",
              "type": "bool"
            },
            {
              "internalType": "bytes",
              "name": "returnData",
              "type": "bytes"
            }
          ],
          "internalType": "struct Multicall.Result[]",
          "name": "returnData",
          "type": "tuple[]"
        }
      ],
      "stateMutability": "nonpayable",
      "type": "function"
    }
  ],
  "bytecode": "0x608060405234801561001057600080fd5b506109cc806100206000396000f3fe608060405234801561001057600080fd5b50600436106100b45760003560e01c806372425d9d1161007157806372425d9d1461013a57806386d516e814610140578063a8b0574e14610146578063bce38bd714610154578063c3077fa914610174578063ee82ac5e1461018757600080fd5b80630f28c97d146100b9578063252dba42146100ce57806327e86d6e146100ef578063399542e9146100f757806342cbb15c146101195780634d2301cc1461011f575b600080fd5b425b6040519081526020015b60405180910390f35b6100e16100dc3660046106e3565b610199565b6040516100c592919061077c565b6100bb610322565b61010a6101053660046107e6565b610335565b6040516100c5939291906108a6565b436100bb565b6100bb61012d3660046108ce565b6001600160a01b03163190565b446100bb565b456100bb565b6040514181526020016100c5565b6101676101623660046107e6565b61034d565b6040516100c591906108f0565b61010a6101823660046106e3565b6104ff565b6100bb610195366004610903565b4090565b805143906060908067ffffffffffffffff8111156101b9576101b961051c565b6040519080825280602002602001820160405280156101ec57816020015b60608152602001906001900390816101d75790505b50915060005b8181101561031b5760008086838151811061020f5761020f61091c565b6020026020010151600001516001600160a01b03168784815181106102365761023661091c565b60200260200101516020015160405161024f9190610932565b6000604051808303816000865af19150503d806000811461028c576040519150601f19603f3d011682016040523d82523d6000602084013e610291565b606091505b5091509150816102e85760405162461bcd60e51b815260206004820181905260248201527f4d756c746963616c6c206167677265676174653a2063616c6c206661696c656460448201526064015b60405180910390fd5b808584815181106102fb576102fb61091c565b60200260200101819052505050808061031390610964565b9150506101f2565b5050915091565b600061032f60014361097f565b40905090565b4380406060610344858561034d565b90509250925092565b80516060908067ffffffffffffffff81111561036b5761036b61051c565b6040519080825280602002602001820160405280156103b157816020015b6040805180820190915260008152606060208201528152602001906001900390816103895790505b50915060005b818110156104f7576000808583815181106103d4576103d461091c565b6020026020010151600001516001600160a01b03168684815181106103fb576103fb61091c565b6020026020010151602001516040516104149190610932565b6000604051808303816000865af19150503d8060008114610451576040519150601f19603f3d011682016040523d82523d6000602084013e610456565b606091505b509150915086156104ae57816104ae5760405162461bcd60e51b815260206004820181905260248201527f4d756c746963616c6c206167677265676174653a2063616c6c206661696c656460448201526064016102df565b60405180604001604052808315158152602001828152508584815181106104d7576104d761091c565b6020026020010181905250505080806104ef90610964565b9150506103b7565b505092915050565b600080606061050f600185610335565b9196909550909350915050565b634e487b7160e01b600052604160045260246000fd5b6040805190810167ffffffffffffffff811182821017156105555761055561051c565b60405290565b604051601f8201601f1916810167ffffffffffffffff811182821017156105845761058461051c565b604052919050565b80356001600160a01b03811681146105a357600080fd5b919050565b6000601f83818401126105ba57600080fd5b8235602067ffffffffffffffff808311156105d7576105d761051c565b8260051b6105e683820161055b565b938452868101830193838101908986111561060057600080fd5b84890192505b858310156106d65782358481111561061e5760008081fd5b89016040601f19828d0381018213156106375760008081fd5b61063f610532565b61064a89850161058c565b8152828401358881111561065e5760008081fd5b8085019450508d603f8501126106745760008081fd5b88840135888111156106885761068861051c565b6106978a848e8401160161055b565b92508083528e848287010111156106ae5760008081fd5b808486018b85013760009083018a015280890191909152845250509184019190840190610606565b9998505050505050505050565b6000602082840312156106f557600080fd5b813567ffffffffffffffff81111561070c57600080fd5b610718848285016105a8565b949350505050565b60005b8381101561073b578181015183820152602001610723565b8381111561074a576000848401525b50505050565b60008151808452610768816020860160208601610720565b601f01601f19169290920160200192915050565b600060408201848352602060408185015281855180845260608601915060608160051b870101935082870160005b828110156107d857605f198887030184526107c6868351610750565b955092840192908401906001016107aa565b509398975050505050505050565b600080604083850312156107f957600080fd5b8235801515811461080957600080fd5b9150602083013567ffffffffffffffff81111561082557600080fd5b610831858286016105a8565b9150509250929050565b600081518084526020808501808196508360051b8101915082860160005b858110156108995782840389528151805115158552850151604086860181905261088581870183610750565b9a87019a9550505090840190600101610859565b5091979650505050505050565b8381528260208201526060604082015260006108c5606083018461083b565b95945050505050565b6000602082840312156108e057600080fd5b6108e98261058c565b9392505050565b6020815260006108e9602083018461083b565b60006020828403121561091557600080fd5b5035919050565b634e487b7160e01b600052603260045260246000fd5b60008251610944818460208701610720565b9190910192915050565b634e487b7160e01b600052601160045260246000fd5b60006000198214156109785761097861094e565b5060010190565b6000828210156109915761099161094e565b50039056fea264697066735822122099b1331d5c3f0fc312ba4b04f290a08aa00b3352fdd8d6373792f3c51b8b477964736f6c634300080c0033",
  "linkReferences": {},
  "deployedLinkReferences": {}
}