{
  "_format": "hh-sol-artifact-1",
  "contractName": "DexRouter",
  "sourceName": "contracts/swap/DexRouter.sol",
  "abi": [
    {
      "inputs": [
        {
          "internalType": "address",
          "name": "_factory",
          "type": "address"
        },
        {
          "internalType": "address",
          "name": "_WKLAY",
          "type": "address"
        }
      ],
      "stateMutability": "nonpayable",
      "type": "constructor"
    },
    {
      "inputs": [],
      "name": "ExcessiveInputAmount",
      "type": "error"
    },
    {
      "inputs": [],
      "name": "Expired",
      "type": "error"
    },
    {
      "inputs": [
        {
          "internalType": "string",
          "name": "",
          "type": "string"
        }
      ],
      "name": "InsufficientAmount",
      "type": "error"
    },
    {
      "inputs": [],
      "name": "InvalidPath",
      "type": "error"
    },
    {
      "inputs": [],
      "name": "WKLAY",
      "outputs": [
        {
          "internalType": "address",
          "name": "",
          "type": "address"
        }
      ],
      "stateMutability": "view",
      "type": "function"
    },
    {
      "inputs": [
        {
          "internalType": "address",
          "name": "tokenA",
          "type": "address"
        },
        {
          "internalType": "address",
          "name": "tokenB",
          "type": "address"
        },
        {
          "internalType": "uint256",
          "name": "amountADesired",
          "type": "uint256"
        },
        {
          "internalType": "uint256",
          "name": "amountBDesired",
          "type": "uint256"
        },
        {
          "internalType": "uint256",
          "name": "amountAMin",
          "type": "uint256"
        },
        {
          "internalType": "uint256",
          "name": "amountBMin",
          "type": "uint256"
        },
        {
          "internalType": "address",
          "name": "to",
          "type": "address"
        },
        {
          "internalType": "uint256",
          "name": "deadline",
          "type": "uint256"
        }
      ],
      "name": "addLiquidity",
      "outputs": [
        {
          "internalType": "uint256",
          "name": "amountA",
          "type": "uint256"
        },
        {
          "internalType": "uint256",
          "name": "amountB",
          "type": "uint256"
        },
        {
          "internalType": "uint256",
          "name": "liquidity",
          "type": "uint256"
        }
      ],
      "stateMutability": "nonpayable",
      "type": "function"
    },
    {
      "inputs": [
        {
          "internalType": "address",
          "name": "token",
          "type": "address"
        },
        {
          "internalType": "uint256",
          "name": "amountTokenDesired",
          "type": "uint256"
        },
        {
          "internalType": "uint256",
          "name": "amountTokenMin",
          "type": "uint256"
        },
        {
          "internalType": "uint256",
          "name": "amountETHMin",
          "type": "uint256"
        },
        {
          "internalType": "address",
          "name": "to",
          "type": "address"
        },
        {
          "internalType": "uint256",
          "name": "deadline",
          "type": "uint256"
        }
      ],
      "name": "addLiquidityETH",
      "outputs": [
        {
          "internalType": "uint256",
          "name": "amountToken",
          "type": "uint256"
        },
        {
          "internalType": "uint256",
          "name": "amountETH",
          "type": "uint256"
        },
        {
          "internalType": "uint256",
          "name": "liquidity",
          "type": "uint256"
        }
      ],
      "stateMutability": "payable",
      "type": "function"
    },
    {
      "inputs": [],
      "name": "factory",
      "outputs": [
        {
          "internalType": "address",
          "name": "",
          "type": "address"
        }
      ],
      "stateMutability": "view",
      "type": "function"
    },
    {
      "inputs": [
        {
          "internalType": "uint256",
          "name": "amountOut",
          "type": "uint256"
        },
        {
          "internalType": "uint256",
          "name": "reserveIn",
          "type": "uint256"
        },
        {
          "internalType": "uint256",
          "name": "reserveOut",
          "type": "uint256"
        }
      ],
      "name": "getAmountIn",
      "outputs": [
        {
          "internalType": "uint256",
          "name": "amountIn",
          "type": "uint256"
        }
      ],
      "stateMutability": "pure",
      "type": "function"
    },
    {
      "inputs": [
        {
          "internalType": "uint256",
          "name": "amountIn",
          "type": "uint256"
        },
        {
          "internalType": "uint256",
          "name": "reserveIn",
          "type": "uint256"
        },
        {
          "internalType": "uint256",
          "name": "reserveOut",
          "type": "uint256"
        }
      ],
      "name": "getAmountOut",
      "outputs": [
        {
          "internalType": "uint256",
          "name": "amountOut",
          "type": "uint256"
        }
      ],
      "stateMutability": "pure",
      "type": "function"
    },
    {
      "inputs": [
        {
          "internalType": "uint256",
          "name": "amountOut",
          "type": "uint256"
        },
        {
          "internalType": "address[]",
          "name": "path",
          "type": "address[]"
        }
      ],
      "name": "getAmountsIn",
      "outputs": [
        {
          "internalType": "uint256[]",
          "name": "amounts",
          "type": "uint256[]"
        }
      ],
      "stateMutability": "view",
      "type": "function"
    },
    {
      "inputs": [
        {
          "internalType": "uint256",
          "name": "amountIn",
          "type": "uint256"
        },
        {
          "internalType": "address[]",
          "name": "path",
          "type": "address[]"
        }
      ],
      "name": "getAmountsOut",
      "outputs": [
        {
          "internalType": "uint256[]",
          "name": "amounts",
          "type": "uint256[]"
        }
      ],
      "stateMutability": "view",
      "type": "function"
    },
    {
      "inputs": [
        {
          "internalType": "uint256",
          "name": "amountA",
          "type": "uint256"
        },
        {
          "internalType": "uint256",
          "name": "reserveA",
          "type": "uint256"
        },
        {
          "internalType": "uint256",
          "name": "reserveB",
          "type": "uint256"
        }
      ],
      "name": "quote",
      "outputs": [
        {
          "internalType": "uint256",
          "name": "amountB",
          "type": "uint256"
        }
      ],
      "stateMutability": "pure",
      "type": "function"
    },
    {
      "inputs": [
        {
          "internalType": "address",
          "name": "tokenA",
          "type": "address"
        },
        {
          "internalType": "address",
          "name": "tokenB",
          "type": "address"
        },
        {
          "internalType": "uint256",
          "name": "liquidity",
          "type": "uint256"
        },
        {
          "internalType": "uint256",
          "name": "amountAMin",
          "type": "uint256"
        },
        {
          "internalType": "uint256",
          "name": "amountBMin",
          "type": "uint256"
        },
        {
          "internalType": "address",
          "name": "to",
          "type": "address"
        },
        {
          "internalType": "uint256",
          "name": "deadline",
          "type": "uint256"
        }
      ],
      "name": "removeLiquidity",
      "outputs": [
        {
          "internalType": "uint256",
          "name": "amountA",
          "type": "uint256"
        },
        {
          "internalType": "uint256",
          "name": "amountB",
          "type": "uint256"
        }
      ],
      "stateMutability": "nonpayable",
      "type": "function"
    },
    {
      "inputs": [
        {
          "internalType": "address",
          "name": "token",
          "type": "address"
        },
        {
          "internalType": "uint256",
          "name": "liquidity",
          "type": "uint256"
        },
        {
          "internalType": "uint256",
          "name": "amountTokenMin",
          "type": "uint256"
        },
        {
          "internalType": "uint256",
          "name": "amountETHMin",
          "type": "uint256"
        },
        {
          "internalType": "address",
          "name": "to",
          "type": "address"
        },
        {
          "internalType": "uint256",
          "name": "deadline",
          "type": "uint256"
        }
      ],
      "name": "removeLiquidityETH",
      "outputs": [
        {
          "internalType": "uint256",
          "name": "amountToken",
          "type": "uint256"
        },
        {
          "internalType": "uint256",
          "name": "amountETH",
          "type": "uint256"
        }
      ],
      "stateMutability": "nonpayable",
      "type": "function"
    },
    {
      "inputs": [
        {
          "internalType": "address",
          "name": "token",
          "type": "address"
        },
        {
          "internalType": "uint256",
          "name": "liquidity",
          "type": "uint256"
        },
        {
          "internalType": "uint256",
          "name": "amountTokenMin",
          "type": "uint256"
        },
        {
          "internalType": "uint256",
          "name": "amountETHMin",
          "type": "uint256"
        },
        {
          "internalType": "address",
          "name": "to",
          "type": "address"
        },
        {
          "internalType": "uint256",
          "name": "deadline",
          "type": "uint256"
        }
      ],
      "name": "removeLiquidityETHSupportingFeeOnTransferTokens",
      "outputs": [
        {
          "internalType": "uint256",
          "name": "amountETH",
          "type": "uint256"
        }
      ],
      "stateMutability": "nonpayable",
      "type": "function"
    },
    {
      "inputs": [
        {
          "internalType": "address",
          "name": "token",
          "type": "address"
        },
        {
          "internalType": "uint256",
          "name": "liquidity",
          "type": "uint256"
        },
        {
          "internalType": "uint256",
          "name": "amountTokenMin",
          "type": "uint256"
        },
        {
          "internalType": "uint256",
          "name": "amountETHMin",
          "type": "uint256"
        },
        {
          "internalType": "address",
          "name": "to",
          "type": "address"
        },
        {
          "internalType": "uint256",
          "name": "deadline",
          "type": "uint256"
        },
        {
          "internalType": "bool",
          "name": "approveMax",
          "type": "bool"
        },
        {
          "internalType": "uint8",
          "name": "v",
          "type": "uint8"
        },
        {
          "internalType": "bytes32",
          "name": "r",
          "type": "bytes32"
        },
        {
          "internalType": "bytes32",
          "name": "s",
          "type": "bytes32"
        }
      ],
      "name": "removeLiquidityETHWithPermit",
      "outputs": [
        {
          "internalType": "uint256",
          "name": "amountToken",
          "type": "uint256"
        },
        {
          "internalType": "uint256",
          "name": "amountETH",
          "type": "uint256"
        }
      ],
      "stateMutability": "nonpayable",
      "type": "function"
    },
    {
      "inputs": [
        {
          "internalType": "address",
          "name": "token",
          "type": "address"
        },
        {
          "internalType": "uint256",
          "name": "liquidity",
          "type": "uint256"
        },
        {
          "internalType": "uint256",
          "name": "amountTokenMin",
          "type": "uint256"
        },
        {
          "internalType": "uint256",
          "name": "amountETHMin",
          "type": "uint256"
        },
        {
          "internalType": "address",
          "name": "to",
          "type": "address"
        },
        {
          "internalType": "uint256",
          "name": "deadline",
          "type": "uint256"
        },
        {
          "internalType": "bool",
          "name": "approveMax",
          "type": "bool"
        },
        {
          "internalType": "uint8",
          "name": "v",
          "type": "uint8"
        },
        {
          "internalType": "bytes32",
          "name": "r",
          "type": "bytes32"
        },
        {
          "internalType": "bytes32",
          "name": "s",
          "type": "bytes32"
        }
      ],
      "name": "removeLiquidityETHWithPermitSupportingFeeOnTransferTokens",
      "outputs": [
        {
          "internalType": "uint256",
          "name": "amountETH",
          "type": "uint256"
        }
      ],
      "stateMutability": "nonpayable",
      "type": "function"
    },
    {
      "inputs": [
        {
          "internalType": "address",
          "name": "tokenA",
          "type": "address"
        },
        {
          "internalType": "address",
          "name": "tokenB",
          "type": "address"
        },
        {
          "internalType": "uint256",
          "name": "liquidity",
          "type": "uint256"
        },
        {
          "internalType": "uint256",
          "name": "amountAMin",
          "type": "uint256"
        },
        {
          "internalType": "uint256",
          "name": "amountBMin",
          "type": "uint256"
        },
        {
          "internalType": "address",
          "name": "to",
          "type": "address"
        },
        {
          "internalType": "uint256",
          "name": "deadline",
          "type": "uint256"
        },
        {
          "internalType": "bool",
          "name": "approveMax",
          "type": "bool"
        },
        {
          "internalType": "uint8",
          "name": "v",
          "type": "uint8"
        },
        {
          "internalType": "bytes32",
          "name": "r",
          "type": "bytes32"
        },
        {
          "internalType": "bytes32",
          "name": "s",
          "type": "bytes32"
        }
      ],
      "name": "removeLiquidityWithPermit",
      "outputs": [
        {
          "internalType": "uint256",
          "name": "amountA",
          "type": "uint256"
        },
        {
          "internalType": "uint256",
          "name": "amountB",
          "type": "uint256"
        }
      ],
      "stateMutability": "nonpayable",
      "type": "function"
    },
    {
      "inputs": [
        {
          "internalType": "uint256",
          "name": "amountOut",
          "type": "uint256"
        },
        {
          "internalType": "address[]",
          "name": "path",
          "type": "address[]"
        },
        {
          "internalType": "address",
          "name": "to",
          "type": "address"
        },
        {
          "internalType": "uint256",
          "name": "deadline",
          "type": "uint256"
        }
      ],
      "name": "swapETHForExactTokens",
      "outputs": [
        {
          "internalType": "uint256[]",
          "name": "amounts",
          "type": "uint256[]"
        }
      ],
      "stateMutability": "payable",
      "type": "function"
    },
    {
      "inputs": [
        {
          "internalType": "uint256",
          "name": "amountOutMin",
          "type": "uint256"
        },
        {
          "internalType": "address[]",
          "name": "path",
          "type": "address[]"
        },
        {
          "internalType": "address",
          "name": "to",
          "type": "address"
        },
        {
          "internalType": "uint256",
          "name": "deadline",
          "type": "uint256"
        }
      ],
      "name": "swapExactETHForTokens",
      "outputs": [
        {
          "internalType": "uint256[]",
          "name": "amounts",
          "type": "uint256[]"
        }
      ],
      "stateMutability": "payable",
      "type": "function"
    },
    {
      "inputs": [
        {
          "internalType": "uint256",
          "name": "amountOutMin",
          "type": "uint256"
        },
        {
          "internalType": "address[]",
          "name": "path",
          "type": "address[]"
        },
        {
          "internalType": "address",
          "name": "to",
          "type": "address"
        },
        {
          "internalType": "uint256",
          "name": "deadline",
          "type": "uint256"
        }
      ],
      "name": "swapExactETHForTokensSupportingFeeOnTransferTokens",
      "outputs": [],
      "stateMutability": "payable",
      "type": "function"
    },
    {
      "inputs": [
        {
          "internalType": "uint256",
          "name": "amountIn",
          "type": "uint256"
        },
        {
          "internalType": "uint256",
          "name": "amountOutMin",
          "type": "uint256"
        },
        {
          "internalType": "address[]",
          "name": "path",
          "type": "address[]"
        },
        {
          "internalType": "address",
          "name": "to",
          "type": "address"
        },
        {
          "internalType": "uint256",
          "name": "deadline",
          "type": "uint256"
        }
      ],
      "name": "swapExactTokensForETH",
      "outputs": [
        {
          "internalType": "uint256[]",
          "name": "amounts",
          "type": "uint256[]"
        }
      ],
      "stateMutability": "nonpayable",
      "type": "function"
    },
    {
      "inputs": [
        {
          "internalType": "uint256",
          "name": "amountIn",
          "type": "uint256"
        },
        {
          "internalType": "uint256",
          "name": "amountOutMin",
          "type": "uint256"
        },
        {
          "internalType": "address[]",
          "name": "path",
          "type": "address[]"
        },
        {
          "internalType": "address",
          "name": "to",
          "type": "address"
        },
        {
          "internalType": "uint256",
          "name": "deadline",
          "type": "uint256"
        }
      ],
      "name": "swapExactTokensForETHSupportingFeeOnTransferTokens",
      "outputs": [],
      "stateMutability": "nonpayable",
      "type": "function"
    },
    {
      "inputs": [
        {
          "internalType": "uint256",
          "name": "amountIn",
          "type": "uint256"
        },
        {
          "internalType": "uint256",
          "name": "amountOutMin",
          "type": "uint256"
        },
        {
          "internalType": "address[]",
          "name": "path",
          "type": "address[]"
        },
        {
          "internalType": "address",
          "name": "to",
          "type": "address"
        },
        {
          "internalType": "uint256",
          "name": "deadline",
          "type": "uint256"
        }
      ],
      "name": "swapExactTokensForTokens",
      "outputs": [
        {
          "internalType": "uint256[]",
          "name": "amounts",
          "type": "uint256[]"
        }
      ],
      "stateMutability": "nonpayable",
      "type": "function"
    },
    {
      "inputs": [
        {
          "internalType": "uint256",
          "name": "amountIn",
          "type": "uint256"
        },
        {
          "internalType": "uint256",
          "name": "amountOutMin",
          "type": "uint256"
        },
        {
          "internalType": "address[]",
          "name": "path",
          "type": "address[]"
        },
        {
          "internalType": "address",
          "name": "to",
          "type": "address"
        },
        {
          "internalType": "uint256",
          "name": "deadline",
          "type": "uint256"
        }
      ],
      "name": "swapExactTokensForTokensSupportingFeeOnTransferTokens",
      "outputs": [],
      "stateMutability": "nonpayable",
      "type": "function"
    },
    {
      "inputs": [
        {
          "internalType": "uint256",
          "name": "amountOut",
          "type": "uint256"
        },
        {
          "internalType": "uint256",
          "name": "amountInMax",
          "type": "uint256"
        },
        {
          "internalType": "address[]",
          "name": "path",
          "type": "address[]"
        },
        {
          "internalType": "address",
          "name": "to",
          "type": "address"
        },
        {
          "internalType": "uint256",
          "name": "deadline",
          "type": "uint256"
        }
      ],
      "name": "swapTokensForExactETH",
      "outputs": [
        {
          "internalType": "uint256[]",
          "name": "amounts",
          "type": "uint256[]"
        }
      ],
      "stateMutability": "nonpayable",
      "type": "function"
    },
    {
      "inputs": [
        {
          "internalType": "uint256",
          "name": "amountOut",
          "type": "uint256"
        },
        {
          "internalType": "uint256",
          "name": "amountInMax",
          "type": "uint256"
        },
        {
          "internalType": "address[]",
          "name": "path",
          "type": "address[]"
        },
        {
          "internalType": "address",
          "name": "to",
          "type": "address"
        },
        {
          "internalType": "uint256",
          "name": "deadline",
          "type": "uint256"
        }
      ],
      "name": "swapTokensForExactTokens",
      "outputs": [
        {
          "internalType": "uint256[]",
          "name": "amounts",
          "type": "uint256[]"
        }
      ],
      "stateMutability": "nonpayable",
      "type": "function"
    },
    {
      "stateMutability": "payable",
      "type": "receive"
    }
  ],
  "bytecode": "0x60c06040523480156200001157600080fd5b50604051620041e0380380620041e0833981016040819052620000349162000069565b6001600160a01b039182166080521660a052620000a1565b80516001600160a01b03811681146200006457600080fd5b919050565b600080604083850312156200007d57600080fd5b62000088836200004c565b915062000098602084016200004c565b90509250929050565b60805160a051613fad620002336000396000818161015f0152818161027a0152818161051a01528181610569015281816106260152818161085401528181610b8e01528181610ccb0152818161101f01528181611103015281816111af0152818161124301528181611363015281816113f10152818161163c015281816116f401528181611786015281816118040152818161187801528181611d1f01528181611f1201528181611f6801528181611f9c015281816120310152818161216b0152818161227f015261230d01526000818161042c015281816106a30152818161077f0152818161093a0152818161097101528181610a6901528181610c0b01528181610ca901528181610de1015281816112bf015281816114230152818161156f015281816118aa01528181611ac701528181611ccd01528181611cfd01528181611e2701528181611f46015281816121e70152818161233f01528181612bcd01528181612c1d01528181612eda01528181613083015281816133c80152818161346b01526134e20152613fad6000f3fe60806040526004361061014f5760003560e01c806385f8c259116100b6578063c45a01551161006f578063c45a01551461041a578063d06ca61f1461044e578063ded9382a1461046e578063e8e337001461048e578063f305d719146104c9578063fb3bdb41146104dc57600080fd5b806385f8c259146103675780638803dbee14610387578063ad615dec146103a7578063af2979eb146103c7578063b6f9de95146103e7578063baa2abde146103fa57600080fd5b806338ed17391161010857806338ed1739146102b45780634a25d94a146102d45780635b0d5984146102f45780635c11d79514610314578063791ac947146103345780637ff36ab51461035457600080fd5b806302751cec14610193578063054d50d4146101cd57806318cbafe5146101fb5780631f00ca74146102285780632195995c14610248578063249502d71461026857600080fd5b3661018e57336001600160a01b037f0000000000000000000000000000000000000000000000000000000000000000161461018c5761018c6136eb565b005b600080fd5b34801561019f57600080fd5b506101b36101ae366004613729565b6104ef565b604080519283526020830191909152015b60405180910390f35b3480156101d957600080fd5b506101ed6101e8366004613787565b6105e3565b6040519081526020016101c4565b34801561020757600080fd5b5061021b6102163660046137f8565b6105f8565b6040516101c4919061386b565b34801561023457600080fd5b5061021b6102433660046138c5565b610933565b34801561025457600080fd5b506101b36102633660046139b5565b610967565b34801561027457600080fd5b5061029c7f000000000000000000000000000000000000000000000000000000000000000081565b6040516001600160a01b0390911681526020016101c4565b3480156102c057600080fd5b5061021b6102cf3660046137f8565b610a40565b3480156102e057600080fd5b5061021b6102ef3660046137f8565b610b60565b34801561030057600080fd5b506101ed61030f366004613a5f565b610ca1565b34801561032057600080fd5b5061018c61032f3660046137f8565b610d8e565b34801561034057600080fd5b5061018c61034f3660046137f8565b610ff3565b61021b610362366004613af5565b61121d565b34801561037357600080fd5b506101ed610382366004613787565b611539565b34801561039357600080fd5b5061021b6103a23660046137f8565b611546565b3480156103b357600080fd5b506101ed6103c2366004613787565b611605565b3480156103d357600080fd5b506101ed6103e2366004613729565b611612565b61018c6103f5366004613af5565b611762565b34801561040657600080fd5b506101b3610415366004613b5c565b611a9b565b34801561042657600080fd5b5061029c7f000000000000000000000000000000000000000000000000000000000000000081565b34801561045a57600080fd5b5061021b6104693660046138c5565b611cc6565b34801561047a57600080fd5b506101b3610489366004613a5f565b611cf3565b34801561049a57600080fd5b506104ae6104a9366004613bce565b611de6565b604080519384526020840192909252908201526060016101c4565b6104ae6104d7366004613729565b611ee5565b61021b6104ea366004613af5565b612145565b600080824281101561051457604051630407b05b60e31b815260040160405180910390fd5b610543897f00000000000000000000000000000000000000000000000000000000000000008a8a8a308a611a9b565b9093509150610553898685612497565b604051632e1a7d4d60e01b8152600481018390527f00000000000000000000000000000000000000000000000000000000000000006001600160a01b031690632e1a7d4d90602401600060405180830381600087803b1580156105b557600080fd5b505af11580156105c9573d6000803e3d6000fd5b505050506105d785836125b2565b50965096945050505050565b60006105f0848484612680565b949350505050565b6060814281101561061c57604051630407b05b60e31b815260040160405180910390fd5b6001600160a01b037f0000000000000000000000000000000000000000000000000000000000000000168686610653600182613c60565b81811061066257610662613c77565b90506020020160208101906106779190613c8d565b6001600160a01b03161461069e576040516320db826760e01b815260040160405180910390fd5b6106fc7f00000000000000000000000000000000000000000000000000000000000000008988888080602002602001604051908101604052809392919081815260200183836020028082843760009201919091525061275992505050565b915086826001845161070e9190613c60565b8151811061071e5761071e613c77565b6020026020010151101561074e5760405163240bf61760e11b815260040161074590613caa565b60405180910390fd5b6108138686600081811061076457610764613c77565b90506020020160208101906107799190613c8d565b336107f37f00000000000000000000000000000000000000000000000000000000000000008a8a60008181106107b1576107b1613c77565b90506020020160208101906107c69190613c8d565b8b8b60018181106107d9576107d9613c77565b90506020020160208101906107ee9190613c8d565b6128de565b8560008151811061080657610806613c77565b60200260200101516129b7565b61085282878780806020026020016040519081016040528093929190818152602001838360200280828437600092019190915250309250612ae7915050565b7f00000000000000000000000000000000000000000000000000000000000000006001600160a01b0316632e1a7d4d83600185516108909190613c60565b815181106108a0576108a0613c77565b60200260200101516040518263ffffffff1660e01b81526004016108c691815260200190565b600060405180830381600087803b1580156108e057600080fd5b505af11580156108f4573d6000803e3d6000fd5b5050505061092884836001855161090b9190613c60565b8151811061091b5761091b613c77565b60200260200101516125b2565b509695505050505050565b60606109607f00000000000000000000000000000000000000000000000000000000000000008484612cec565b9392505050565b60008060006109977f00000000000000000000000000000000000000000000000000000000000000008f8f6128de565b90506000876109a6578c6109aa565b6000195b60405163d505accf60e01b81529091506001600160a01b0383169063d505accf906109e5903390309086908f908e908e908e90600401613cef565b600060405180830381600087803b1580156109ff57600080fd5b505af1158015610a13573d6000803e3d6000fd5b50505050610a268f8f8f8f8f8f8f611a9b565b809450819550505050509b509b9950505050505050505050565b60608142811015610a6457604051630407b05b60e31b815260040160405180910390fd5b610ac27f00000000000000000000000000000000000000000000000000000000000000008988888080602002602001604051908101604052809392919081815260200183836020028082843760009201919091525061275992505050565b9150868260018451610ad49190613c60565b81518110610ae457610ae4613c77565b60200260200101511015610b0b5760405163240bf61760e11b815260040161074590613caa565b610b218686600081811061076457610764613c77565b61092882878780806020026020016040519081016040528093929190818152602001838360200280828437600092019190915250899250612ae7915050565b60608142811015610b8457604051630407b05b60e31b815260040160405180910390fd5b6001600160a01b037f0000000000000000000000000000000000000000000000000000000000000000168686610bbb600182613c60565b818110610bca57610bca613c77565b9050602002016020810190610bdf9190613c8d565b6001600160a01b031614610c06576040516320db826760e01b815260040160405180910390fd5b610c647f000000000000000000000000000000000000000000000000000000000000000089888880806020026020016040519081016040528093929190818152602001838360200280828437600092019190915250612cec92505050565b91508682600081518110610c7a57610c7a613c77565b6020026020010151111561074e5760405163e1b0da4f60e01b815260040160405180910390fd5b600080610cef7f00000000000000000000000000000000000000000000000000000000000000008d7f00000000000000000000000000000000000000000000000000000000000000006128de565b9050600086610cfe578b610d02565b6000195b60405163d505accf60e01b81529091506001600160a01b0383169063d505accf90610d3d903390309086908e908d908d908d90600401613cef565b600060405180830381600087803b158015610d5757600080fd5b505af1158015610d6b573d6000803e3d6000fd5b50505050610d7d8d8d8d8d8d8d611612565b9d9c50505050505050505050505050565b8042811015610db057604051630407b05b60e31b815260040160405180910390fd5b610e4185856000818110610dc657610dc6613c77565b9050602002016020810190610ddb9190613c8d565b33610e3b7f000000000000000000000000000000000000000000000000000000000000000089896000818110610e1357610e13613c77565b9050602002016020810190610e289190613c8d565b8a8a60018181106107d9576107d9613c77565b8a6129b7565b60008585610e50600182613c60565b818110610e5f57610e5f613c77565b9050602002016020810190610e749190613c8d565b6040516370a0823160e01b81526001600160a01b03868116600483015291909116906370a0823190602401602060405180830381865afa158015610ebc573d6000803e3d6000fd5b505050506040513d601f19601f82011682018060405250810190610ee09190613d30565b9050610f20868680806020026020016040519081016040528093929190818152602001838360200280828437600092019190915250889250612e65915050565b86818787610f2f600182613c60565b818110610f3e57610f3e613c77565b9050602002016020810190610f539190613c8d565b6040516370a0823160e01b81526001600160a01b03888116600483015291909116906370a08231906024015b602060405180830381865afa158015610f9c573d6000803e3d6000fd5b505050506040513d601f19601f82011682018060405250810190610fc09190613d30565b610fca9190613c60565b1015610fe95760405163240bf61760e11b815260040161074590613caa565b5050505050505050565b804281101561101557604051630407b05b60e31b815260040160405180910390fd5b6001600160a01b037f000000000000000000000000000000000000000000000000000000000000000016858561104c600182613c60565b81811061105b5761105b613c77565b90506020020160208101906110709190613c8d565b6001600160a01b031614611097576040516320db826760e01b815260040160405180910390fd5b6110ad85856000818110610dc657610dc6613c77565b6110eb858580806020026020016040519081016040528093929190818152602001838360200280828437600092019190915250309250612e65915050565b6040516370a0823160e01b81523060048201526000907f00000000000000000000000000000000000000000000000000000000000000006001600160a01b0316906370a0823190602401602060405180830381865afa158015611152573d6000803e3d6000fd5b505050506040513d601f19601f820116820180604052508101906111769190613d30565b9050868110156111995760405163240bf61760e11b815260040161074590613caa565b604051632e1a7d4d60e01b8152600481018290527f00000000000000000000000000000000000000000000000000000000000000006001600160a01b031690632e1a7d4d90602401600060405180830381600087803b1580156111fb57600080fd5b505af115801561120f573d6000803e3d6000fd5b50505050610fe984826125b2565b6060814281101561124157604051630407b05b60e31b815260040160405180910390fd5b7f00000000000000000000000000000000000000000000000000000000000000006001600160a01b03168686600081811061127e5761127e613c77565b90506020020160208101906112939190613c8d565b6001600160a01b0316146112ba576040516320db826760e01b815260040160405180910390fd5b6113187f00000000000000000000000000000000000000000000000000000000000000003488888080602002602001604051908101604052809392919081815260200183836020028082843760009201919091525061275992505050565b915086826001845161132a9190613c60565b8151811061133a5761133a613c77565b602002602001015110156113615760405163240bf61760e11b815260040161074590613caa565b7f00000000000000000000000000000000000000000000000000000000000000006001600160a01b031663d0e30db0836000815181106113a3576113a3613c77565b60200260200101516040518263ffffffff1660e01b81526004016000604051808303818588803b1580156113d657600080fd5b505af11580156113ea573d6000803e3d6000fd5b50505050507f00000000000000000000000000000000000000000000000000000000000000006001600160a01b031663a9059cbb6114557f000000000000000000000000000000000000000000000000000000000000000089896000818110610e1357610e13613c77565b8460008151811061146857611468613c77565b60200260200101516040518363ffffffff1660e01b81526004016114a19291906001600160a01b03929092168252602082015260400190565b6020604051808303816000875af11580156114c0573d6000803e3d6000fd5b505050506040513d601f19601f820116820180604052508101906114e49190613d49565b6114f0576114f06136eb565b61152f82878780806020026020016040519081016040528093929190818152602001838360200280828437600092019190915250899250612ae7915050565b5095945050505050565b60006105f084848461313f565b6060814281101561156a57604051630407b05b60e31b815260040160405180910390fd5b6115c87f000000000000000000000000000000000000000000000000000000000000000089888880806020026020016040519081016040528093929190818152602001838360200280828437600092019190915250612cec92505050565b915086826000815181106115de576115de613c77565b60200260200101511115610b0b5760405163e1b0da4f60e01b815260040160405180910390fd5b60006105f084848461321e565b6000814281101561163657604051630407b05b60e31b815260040160405180910390fd5b611665887f00000000000000000000000000000000000000000000000000000000000000008989893089611a9b565b6040516370a0823160e01b81523060048201529093506116de9150899086906001600160a01b038316906370a0823190602401602060405180830381865afa1580156116b5573d6000803e3d6000fd5b505050506040513d601f19601f820116820180604052508101906116d99190613d30565b612497565b604051632e1a7d4d60e01b8152600481018390527f00000000000000000000000000000000000000000000000000000000000000006001600160a01b031690632e1a7d4d90602401600060405180830381600087803b15801561174057600080fd5b505af1158015611754573d6000803e3d6000fd5b5050505061092884836125b2565b804281101561178457604051630407b05b60e31b815260040160405180910390fd5b7f00000000000000000000000000000000000000000000000000000000000000006001600160a01b0316858560008181106117c1576117c1613c77565b90506020020160208101906117d69190613c8d565b6001600160a01b0316146117fd576040516320db826760e01b815260040160405180910390fd5b60003490507f00000000000000000000000000000000000000000000000000000000000000006001600160a01b031663d0e30db0826040518263ffffffff1660e01b81526004016000604051808303818588803b15801561185d57600080fd5b505af1158015611871573d6000803e3d6000fd5b50505050507f00000000000000000000000000000000000000000000000000000000000000006001600160a01b031663a9059cbb6118dc7f000000000000000000000000000000000000000000000000000000000000000089896000818110610e1357610e13613c77565b6040516001600160e01b031960e084901b1681526001600160a01b039091166004820152602481018490526044016020604051808303816000875af1158015611929573d6000803e3d6000fd5b505050506040513d601f19601f8201168201806040525081019061194d9190613d49565b611959576119596136eb565b60008686611968600182613c60565b81811061197757611977613c77565b905060200201602081019061198c9190613c8d565b6040516370a0823160e01b81526001600160a01b03878116600483015291909116906370a0823190602401602060405180830381865afa1580156119d4573d6000803e3d6000fd5b505050506040513d601f19601f820116820180604052508101906119f89190613d30565b9050611a38878780806020026020016040519081016040528093929190818152602001838360200280828437600092019190915250899250612e65915050565b87818888611a47600182613c60565b818110611a5657611a56613c77565b9050602002016020810190611a6b9190613c8d565b6040516370a0823160e01b81526001600160a01b03898116600483015291909116906370a0823190602401610f7f565b6000808242811015611ac057604051630407b05b60e31b815260040160405180910390fd5b6000611aed7f00000000000000000000000000000000000000000000000000000000000000008c8c6128de565b6040516323b872dd60e01b81523360048201526001600160a01b03821660248201819052604482018c90529192506323b872dd906064016020604051808303816000875af1158015611b43573d6000803e3d6000fd5b505050506040513d601f19601f82011682018060405250810190611b679190613d49565b5060405163226bf2d160e21b81526001600160a01b03878116600483015260009182918416906389afcb449060240160408051808303816000875af1158015611bb4573d6000803e3d6000fd5b505050506040513d601f19601f82011682018060405250810190611bd89190613d66565b915091506000611be88e8e6132b0565b509050806001600160a01b03168e6001600160a01b031614611c0b578183611c0e565b82825b90975095508a871015611c645760405163240bf61760e11b815260206004820181905260248201527f446578526f757465723a20494e53554646494349454e545f415f414d4f554e546044820152606401610745565b89861015611cb55760405163240bf61760e11b815260206004820181905260248201527f446578526f757465723a20494e53554646494349454e545f425f414d4f554e546044820152606401610745565b505050505097509795505050505050565b60606109607f00000000000000000000000000000000000000000000000000000000000000008484612759565b6000806000611d437f00000000000000000000000000000000000000000000000000000000000000008e7f00000000000000000000000000000000000000000000000000000000000000006128de565b9050600087611d52578c611d56565b6000195b60405163d505accf60e01b81529091506001600160a01b0383169063d505accf90611d91903390309086908f908e908e908e90600401613cef565b600060405180830381600087803b158015611dab57600080fd5b505af1158015611dbf573d6000803e3d6000fd5b50505050611dd18e8e8e8e8e8e6104ef565b909f909e509c50505050505050505050505050565b60008060008342811015611e0d57604051630407b05b60e31b815260040160405180910390fd5b611e1b8c8c8c8c8c8c61339a565b90945092506000611e4d7f00000000000000000000000000000000000000000000000000000000000000008e8e6128de565b9050611e5b8d3383886129b7565b611e678c3383876129b7565b6040516335313c2160e11b81526001600160a01b038881166004830152821690636a627842906024016020604051808303816000875af1158015611eaf573d6000803e3d6000fd5b505050506040513d601f19601f82011682018060405250810190611ed39190613d30565b92505050985098509895505050505050565b60008060008342811015611f0c57604051630407b05b60e31b815260040160405180910390fd5b611f3a8a7f00000000000000000000000000000000000000000000000000000000000000008b348c8c61339a565b90945092506000611f8c7f00000000000000000000000000000000000000000000000000000000000000008c7f00000000000000000000000000000000000000000000000000000000000000006128de565b9050611f9a8b3383886129b7565b7f00000000000000000000000000000000000000000000000000000000000000006001600160a01b031663d0e30db0856040518263ffffffff1660e01b81526004016000604051808303818588803b158015611ff557600080fd5b505af1158015612009573d6000803e3d6000fd5b505060405163a9059cbb60e01b81526001600160a01b038581166004830152602482018990527f000000000000000000000000000000000000000000000000000000000000000016935063a9059cbb925060440190506020604051808303816000875af115801561207e573d6000803e3d6000fd5b505050506040513d601f19601f820116820180604052508101906120a29190613d49565b6120ae576120ae6136eb565b6040516335313c2160e11b81526001600160a01b038881166004830152821690636a627842906024016020604051808303816000875af11580156120f6573d6000803e3d6000fd5b505050506040513d601f19601f8201168201806040525081019061211a9190613d30565b92508334111561213757612137336121328634613c60565b6125b2565b505096509650969350505050565b6060814281101561216957604051630407b05b60e31b815260040160405180910390fd5b7f00000000000000000000000000000000000000000000000000000000000000006001600160a01b0316868660008181106121a6576121a6613c77565b90506020020160208101906121bb9190613c8d565b6001600160a01b0316146121e2576040516320db826760e01b815260040160405180910390fd5b6122407f000000000000000000000000000000000000000000000000000000000000000088888880806020026020016040519081016040528093929190818152602001838360200280828437600092019190915250612cec92505050565b9150348260008151811061225657612256613c77565b6020026020010151111561227d5760405163e1b0da4f60e01b815260040160405180910390fd5b7f00000000000000000000000000000000000000000000000000000000000000006001600160a01b031663d0e30db0836000815181106122bf576122bf613c77565b60200260200101516040518263ffffffff1660e01b81526004016000604051808303818588803b1580156122f257600080fd5b505af1158015612306573d6000803e3d6000fd5b50505050507f00000000000000000000000000000000000000000000000000000000000000006001600160a01b031663a9059cbb6123717f000000000000000000000000000000000000000000000000000000000000000089896000818110610e1357610e13613c77565b8460008151811061238457612384613c77565b60200260200101516040518363ffffffff1660e01b81526004016123bd9291906001600160a01b03929092168252602082015260400190565b6020604051808303816000875af11580156123dc573d6000803e3d6000fd5b505050506040513d601f19601f820116820180604052508101906124009190613d49565b61240c5761240c6136eb565b61244b82878780806020026020016040519081016040528093929190818152602001838360200280828437600092019190915250899250612ae7915050565b8160008151811061245e5761245e613c77565b602002602001015134111561152f5761152f338360008151811061248457612484613c77565b6020026020010151346121329190613c60565b604080516001600160a01b038481166024830152604480830185905283518084039091018152606490920183526020820180516001600160e01b031663a9059cbb60e01b17905291516000928392908716916124f39190613dba565b6000604051808303816000865af19150503d8060008114612530576040519150601f19603f3d011682016040523d82523d6000602084013e612535565b606091505b509150915081801561255f57508051158061255f57508080602001905181019061255f9190613d49565b6125ab5760405162461bcd60e51b815260206004820152601f60248201527f5472616e7366657248656c7065723a205452414e534645525f4641494c4544006044820152606401610745565b5050505050565b604080516000808252602082019092526001600160a01b0384169083906040516125dc9190613dba565b60006040518083038185875af1925050503d8060008114612619576040519150601f19603f3d011682016040523d82523d6000602084013e61261e565b606091505b505090508061267b5760405162461bcd60e51b815260206004820152602360248201527f5472616e7366657248656c7065723a204554485f5452414e534645525f46414960448201526213115160ea1b6064820152608401610745565b505050565b60008084116126df5760405162461bcd60e51b815260206004820152602560248201527f4465784c6962726172793a20494e53554646494349454e545f494e5055545f416044820152641353d5539560da1b6064820152608401610745565b6000831180156126ef5750600082115b61270b5760405162461bcd60e51b815260040161074590613dd6565b6000612719856103e5613e18565b905060006127278483613e18565b9050600082612738876103e8613e18565b6127429190613e37565b905061274e8183613e4f565b979650505050505050565b805160609060028110156127aa5760405162461bcd60e51b8152602060048201526018602482015277088caf098d2c4e4c2e4f27440929cac82989288bea082a8960431b6044820152606401610745565b8067ffffffffffffffff8111156127c3576127c36138af565b6040519080825280602002602001820160405280156127ec578160200160208202803683370190505b509150838260008151811061280357612803613c77565b60200260200101818152505060005b61281d600183613c60565b8110156128d5576000806128708887858151811061283d5761283d613c77565b6020026020010151888660016128539190613e37565b8151811061286357612863613c77565b6020026020010151613621565b9150915061289885848151811061288957612889613c77565b60200260200101518383612680565b856128a4856001613e37565b815181106128b4576128b4613c77565b602002602001018181525050505080806128cd90613e71565b915050612812565b50509392505050565b60008060006128ed85856132b0565b6040516bffffffffffffffffffffffff19606084811b8216602084015283901b16603482015291935091508690604801604051602081830303815290604052805190602001206040516020016129959291906001600160f81b0319815260609290921b6bffffffffffffffffffffffff1916600183015260158201527f582a4796fb2e3c10c1e98e48d70eb38f8ea8a9a24d7d35053c46225b553c145a603582015260550190565b60408051601f1981840301815291905280516020909101209695505050505050565b604080516001600160a01b0385811660248301528481166044830152606480830185905283518084039091018152608490920183526020820180516001600160e01b03166323b872dd60e01b1790529151600092839290881691612a1b9190613dba565b6000604051808303816000865af19150503d8060008114612a58576040519150601f19603f3d011682016040523d82523d6000602084013e612a5d565b606091505b5091509150818015612a87575080511580612a87575080806020019051810190612a879190613d49565b612adf5760405162461bcd60e51b8152602060048201526024808201527f5472616e7366657248656c7065723a205452414e534645525f46524f4d5f46416044820152631253115160e21b6064820152608401610745565b505050505050565b600060018351612af79190613c60565b905060005b818110156125ab57600080858381518110612b1957612b19613c77565b602002602001015186846001612b2f9190613e37565b81518110612b3f57612b3f613c77565b6020026020010151915091506000612b5783836132b0565b509050600088612b68866001613e37565b81518110612b7857612b78613c77565b60200260200101519050600080836001600160a01b0316866001600160a01b031614612ba657826000612baa565b6000835b90925090506000612bbc60018a613c60565b8810612bc85789612c16565b612c167f0000000000000000000000000000000000000000000000000000000000000000878d612bf98c6002613e37565b81518110612c0957612c09613c77565b60200260200101516128de565b9050612c437f000000000000000000000000000000000000000000000000000000000000000088886128de565b6001600160a01b031663022c0d9f84848460006040519080825280601f01601f191660200182016040528015612c80576020820181803683370190505b506040518563ffffffff1660e01b8152600401612ca09493929190613e8c565b600060405180830381600087803b158015612cba57600080fd5b505af1158015612cce573d6000803e3d6000fd5b50505050505050505050508080612ce490613e71565b915050612afc565b80516060906002811015612d3d5760405162461bcd60e51b8152602060048201526018602482015277088caf098d2c4e4c2e4f27440929cac82989288bea082a8960431b6044820152606401610745565b8067ffffffffffffffff811115612d5657612d566138af565b604051908082528060200260200182016040528015612d7f578160200160208202803683370190505b509150838260018451612d929190613c60565b81518110612da257612da2613c77565b60209081029190910101526000612dba600183613c60565b90505b80156128d557600080612e008887612dd6600187613c60565b81518110612de657612de6613c77565b602002602001015188868151811061286357612863613c77565b91509150612e28858481518110612e1957612e19613c77565b6020026020010151838361313f565b85612e34600186613c60565b81518110612e4457612e44613c77565b60200260200101818152505050508080612e5d90613edc565b915050612dbd565b60005b60018351612e769190613c60565b81101561267b57600080848381518110612e9257612e92613c77565b602002602001015185846001612ea89190613e37565b81518110612eb857612eb8613c77565b6020026020010151915091506000612ed083836132b0565b5090506000612f007f000000000000000000000000000000000000000000000000000000000000000085856128de565b9050600080600080846001600160a01b0316630902f1ac6040518163ffffffff1660e01b8152600401606060405180830381865afa158015612f46573d6000803e3d6000fd5b505050506040513d601f19601f82011682018060405250810190612f6a9190613f0a565b506001600160701b031691506001600160701b03169150600080876001600160a01b03168a6001600160a01b031614612fa4578284612fa7565b83835b6040516370a0823160e01b81526001600160a01b038a8116600483015292945090925083918c16906370a0823190602401602060405180830381865afa158015612ff5573d6000803e3d6000fd5b505050506040513d601f19601f820116820180604052508101906130199190613d30565b6130239190613c60565b9550613030868383612680565b945050505050600080856001600160a01b0316886001600160a01b03161461305a5782600061305e565b6000835b91509150600060028c516130729190613c60565b8a1061307e578a6130af565b6130af7f0000000000000000000000000000000000000000000000000000000000000000898e612bf98e6002613e37565b6040805160008152602081019182905263022c0d9f60e01b9091529091506001600160a01b0387169063022c0d9f906130f19086908690869060248101613e8c565b600060405180830381600087803b15801561310b57600080fd5b505af115801561311f573d6000803e3d6000fd5b50505050505050505050505050808061313790613e71565b915050612e68565b600080841161319f5760405162461bcd60e51b815260206004820152602660248201527f4465784c6962726172793a20494e53554646494349454e545f4f55545055545f604482015265105353d5539560d21b6064820152608401610745565b6000831180156131af5750600082115b6131cb5760405162461bcd60e51b815260040161074590613dd6565b60006131d78585613e18565b6131e3906103e8613e18565b905060006131f18685613c60565b6131fd906103e5613e18565b90506132098183613e4f565b613214906001613e37565b9695505050505050565b600080841161326f5760405162461bcd60e51b815260206004820152601f60248201527f4465784c6962726172793a20494e53554646494349454e545f414d4f554e54006044820152606401610745565b60008311801561327f5750600082115b61329b5760405162461bcd60e51b815260040161074590613dd6565b826132a68386613e18565b6105f09190613e4f565b600080826001600160a01b0316846001600160a01b031614156133155760405162461bcd60e51b815260206004820152601f60248201527f4465784c6962726172793a204944454e544943414c5f414444524553534553006044820152606401610745565b826001600160a01b0316846001600160a01b031610613335578284613338565b83835b90925090506001600160a01b0382166133935760405162461bcd60e51b815260206004820152601860248201527f4465784c6962726172793a205a45524f5f4144445245535300000000000000006044820152606401610745565b9250929050565b60405163e6a4390560e01b81526001600160a01b0387811660048301528681166024830152600091829182917f00000000000000000000000000000000000000000000000000000000000000009091169063e6a4390590604401602060405180830381865afa158015613411573d6000803e3d6000fd5b505050506040513d601f19601f820116820180604052508101906134359190613f5a565b6001600160a01b031614156134da576040516364e329cb60e11b81526001600160a01b03898116600483015288811660248301527f0000000000000000000000000000000000000000000000000000000000000000169063c9c65396906044016020604051808303816000875af11580156134b4573d6000803e3d6000fd5b505050506040513d601f19601f820116820180604052508101906134d89190613f5a565b505b6000806135087f00000000000000000000000000000000000000000000000000000000000000008b8b613621565b9150915081600014801561351a575080155b1561352a57879350869250613614565b600061353789848461321e565b905087811161359c57858110156135915760405163240bf61760e11b815260206004820181905260248201527f446578526f757465723a20494e53554646494349454e545f425f414d4f554e546044820152606401610745565b889450925082613612565b60006135a989848661321e565b9050898111156135bb576135bb6136eb565b8781101561360c5760405163240bf61760e11b815260206004820181905260248201527f446578526f757465723a20494e53554646494349454e545f415f414d4f554e546044820152606401610745565b94508793505b505b5050965096945050505050565b600080600061363085856132b0565b5090506000806136418888886128de565b6001600160a01b0316630902f1ac6040518163ffffffff1660e01b8152600401606060405180830381865afa15801561367e573d6000803e3d6000fd5b505050506040513d601f19601f820116820180604052508101906136a29190613f0a565b506001600160701b031691506001600160701b03169150826001600160a01b0316876001600160a01b0316146136d95780826136dc565b81815b90999098509650505050505050565b634e487b7160e01b600052600160045260246000fd5b6001600160a01b038116811461371657600080fd5b50565b803561372481613701565b919050565b60008060008060008060c0878903121561374257600080fd5b863561374d81613701565b9550602087013594506040870135935060608701359250608087013561377281613701565b8092505060a087013590509295509295509295565b60008060006060848603121561379c57600080fd5b505081359360208301359350604090920135919050565b60008083601f8401126137c557600080fd5b50813567ffffffffffffffff8111156137dd57600080fd5b6020830191508360208260051b850101111561339357600080fd5b60008060008060008060a0878903121561381157600080fd5b8635955060208701359450604087013567ffffffffffffffff81111561383657600080fd5b61384289828a016137b3565b909550935050606087013561385681613701565b80925050608087013590509295509295509295565b6020808252825182820181905260009190848201906040850190845b818110156138a357835183529284019291840191600101613887565b50909695505050505050565b634e487b7160e01b600052604160045260246000fd5b600080604083850312156138d857600080fd5b8235915060208084013567ffffffffffffffff808211156138f857600080fd5b818601915086601f83011261390c57600080fd5b81358181111561391e5761391e6138af565b8060051b604051601f19603f83011681018181108582111715613943576139436138af565b60405291825284820192508381018501918983111561396157600080fd5b938501935b828510156139865761397785613719565b84529385019392850192613966565b8096505050505050509250929050565b801515811461371657600080fd5b803560ff8116811461372457600080fd5b60008060008060008060008060008060006101608c8e0312156139d757600080fd5b8b356139e281613701565b9a5060208c01356139f281613701565b995060408c0135985060608c0135975060808c0135965060a08c0135613a1781613701565b955060c08c0135945060e08c0135613a2e81613996565b9350613a3d6101008d016139a4565b92506101208c013591506101408c013590509295989b509295989b9093969950565b6000806000806000806000806000806101408b8d031215613a7f57600080fd5b8a35613a8a81613701565b995060208b0135985060408b0135975060608b0135965060808b0135613aaf81613701565b955060a08b0135945060c08b0135613ac681613996565b9350613ad460e08c016139a4565b92506101008b013591506101208b013590509295989b9194979a5092959850565b600080600080600060808688031215613b0d57600080fd5b85359450602086013567ffffffffffffffff811115613b2b57600080fd5b613b37888289016137b3565b9095509350506040860135613b4b81613701565b949793965091946060013592915050565b600080600080600080600060e0888a031215613b7757600080fd5b8735613b8281613701565b96506020880135613b9281613701565b955060408801359450606088013593506080880135925060a0880135613bb781613701565b8092505060c0880135905092959891949750929550565b600080600080600080600080610100898b031215613beb57600080fd5b8835613bf681613701565b97506020890135613c0681613701565b965060408901359550606089013594506080890135935060a0890135925060c0890135613c3281613701565b8092505060e089013590509295985092959890939650565b634e487b7160e01b600052601160045260246000fd5b600082821015613c7257613c72613c4a565b500390565b634e487b7160e01b600052603260045260246000fd5b600060208284031215613c9f57600080fd5b813561096081613701565b60208082526025908201527f446578526f757465723a20494e53554646494349454e545f4f55545055545f416040820152641353d5539560da1b606082015260800190565b6001600160a01b0397881681529590961660208601526040850193909352606084019190915260ff16608083015260a082015260c081019190915260e00190565b600060208284031215613d4257600080fd5b5051919050565b600060208284031215613d5b57600080fd5b815161096081613996565b60008060408385031215613d7957600080fd5b505080516020909101519092909150565b60005b83811015613da5578181015183820152602001613d8d565b83811115613db4576000848401525b50505050565b60008251613dcc818460208701613d8a565b9190910192915050565b60208082526022908201527f4465784c6962726172793a20494e53554646494349454e545f4c495155494449604082015261545960f01b606082015260800190565b6000816000190483118215151615613e3257613e32613c4a565b500290565b60008219821115613e4a57613e4a613c4a565b500190565b600082613e6c57634e487b7160e01b600052601260045260246000fd5b500490565b6000600019821415613e8557613e85613c4a565b5060010190565b84815283602082015260018060a01b03831660408201526080606082015260008251806080840152613ec58160a0850160208701613d8a565b601f01601f19169190910160a00195945050505050565b600081613eeb57613eeb613c4a565b506000190190565b80516001600160701b038116811461372457600080fd5b600080600060608486031215613f1f57600080fd5b613f2884613ef3565b9250613f3660208501613ef3565b9150604084015163ffffffff81168114613f4f57600080fd5b809150509250925092565b600060208284031215613f6c57600080fd5b81516109608161370156fea264697066735822122028cb84d5018955b0faddc6f497ed5578626bf9be54dccd07192ccc3e05248b1664736f6c634300080c0033",
  "linkReferences": {},
  "deployedLinkReferences": {}
}