{
  "_format": "hh-sol-artifact-1",
  "contractName": "Farming",
  "sourceName": "contracts/farming/Farming.sol",
  "abi": [
    {
      "inputs": [
        {
          "internalType": "address",
          "name": "_ptn",
          "type": "address"
        },
        {
          "internalType": "uint256",
          "name": "_ptnPerBlock",
          "type": "uint256"
        },
        {
          "internalType": "uint256",
          "name": "_startBlock",
          "type": "uint256"
        },
        {
          "internalType": "address",
          "name": "_multisig",
          "type": "address"
        }
      ],
      "stateMutability": "nonpayable",
      "type": "constructor"
    },
    {
      "anonymous": false,
      "inputs": [
        {
          "indexed": true,
          "internalType": "uint256",
          "name": "pid",
          "type": "uint256"
        },
        {
          "indexed": false,
          "internalType": "uint256",
          "name": "allocPoint",
          "type": "uint256"
        },
        {
          "indexed": true,
          "internalType": "address",
          "name": "token",
          "type": "address"
        },
        {
          "indexed": false,
          "internalType": "uint256",
          "name": "bonusMultiplier",
          "type": "uint256"
        },
        {
          "indexed": false,
          "internalType": "uint256",
          "name": "bonusEndBlock",
          "type": "uint256"
        }
      ],
      "name": "AddPool",
      "type": "event"
    },
    {
      "anonymous": false,
      "inputs": [
        {
          "indexed": true,
          "internalType": "address",
          "name": "user",
          "type": "address"
        },
        {
          "indexed": true,
          "internalType": "uint256",
          "name": "pid",
          "type": "uint256"
        },
        {
          "indexed": false,
          "internalType": "uint256",
          "name": "amount",
          "type": "uint256"
        }
      ],
      "name": "Deposit",
      "type": "event"
    },
    {
      "anonymous": false,
      "inputs": [
        {
          "indexed": true,
          "internalType": "address",
          "name": "user",
          "type": "address"
        },
        {
          "indexed": true,
          "internalType": "uint256",
          "name": "pid",
          "type": "uint256"
        },
        {
          "indexed": false,
          "internalType": "uint256",
          "name": "amount",
          "type": "uint256"
        }
      ],
      "name": "EmergencyWithdraw",
      "type": "event"
    },
    {
      "anonymous": false,
      "inputs": [
        {
          "indexed": true,
          "internalType": "address",
          "name": "previousOwner",
          "type": "address"
        },
        {
          "indexed": true,
          "internalType": "address",
          "name": "newOwner",
          "type": "address"
        }
      ],
      "name": "OwnershipTransferred",
      "type": "event"
    },
    {
      "anonymous": false,
      "inputs": [
        {
          "indexed": true,
          "internalType": "uint256",
          "name": "pid",
          "type": "uint256"
        },
        {
          "indexed": false,
          "internalType": "uint256",
          "name": "allocPoint",
          "type": "uint256"
        }
      ],
      "name": "SetPool",
      "type": "event"
    },
    {
      "anonymous": false,
      "inputs": [
        {
          "indexed": true,
          "internalType": "uint256",
          "name": "pid",
          "type": "uint256"
        },
        {
          "indexed": false,
          "internalType": "uint256",
          "name": "lastRewardBlock",
          "type": "uint256"
        },
        {
          "indexed": false,
          "internalType": "uint256",
          "name": "lpSupply",
          "type": "uint256"
        },
        {
          "indexed": false,
          "internalType": "uint256",
          "name": "accPtnPerShare",
          "type": "uint256"
        }
      ],
      "name": "UpdatePool",
      "type": "event"
    },
    {
      "anonymous": false,
      "inputs": [
        {
          "indexed": true,
          "internalType": "uint256",
          "name": "pid",
          "type": "uint256"
        },
        {
          "indexed": false,
          "internalType": "uint256",
          "name": "multiplier",
          "type": "uint256"
        }
      ],
      "name": "UpdatePoolMultiplier",
      "type": "event"
    },
    {
      "anonymous": false,
      "inputs": [
        {
          "indexed": false,
          "internalType": "uint256",
          "name": "rewardPerBlock",
          "type": "uint256"
        }
      ],
      "name": "UpdateRewardPerBlock",
      "type": "event"
    },
    {
      "anonymous": false,
      "inputs": [
        {
          "indexed": true,
          "internalType": "address",
          "name": "user",
          "type": "address"
        },
        {
          "indexed": true,
          "internalType": "uint256",
          "name": "pid",
          "type": "uint256"
        },
        {
          "indexed": false,
          "internalType": "uint256",
          "name": "amount",
          "type": "uint256"
        }
      ],
      "name": "Withdraw",
      "type": "event"
    },
    {
      "inputs": [
        {
          "internalType": "uint256",
          "name": "_allocPoint",
          "type": "uint256"
        },
        {
          "internalType": "address",
          "name": "_lpToken",
          "type": "address"
        },
        {
          "internalType": "bool",
          "name": "_withUpdate",
          "type": "bool"
        },
        {
          "internalType": "uint256",
          "name": "_bonusMultiplier",
          "type": "uint256"
        },
        {
          "internalType": "uint256",
          "name": "_bonusEndBlock",
          "type": "uint256"
        }
      ],
      "name": "add",
      "outputs": [],
      "stateMutability": "nonpayable",
      "type": "function"
    },
    {
      "inputs": [
        {
          "internalType": "address",
          "name": "",
          "type": "address"
        }
      ],
      "name": "addedTokens",
      "outputs": [
        {
          "internalType": "bool",
          "name": "",
          "type": "bool"
        }
      ],
      "stateMutability": "view",
      "type": "function"
    },
    {
      "inputs": [
        {
          "internalType": "uint256",
          "name": "_pid",
          "type": "uint256"
        },
        {
          "internalType": "uint256",
          "name": "_amount",
          "type": "uint256"
        }
      ],
      "name": "deposit",
      "outputs": [],
      "stateMutability": "nonpayable",
      "type": "function"
    },
    {
      "inputs": [
        {
          "internalType": "uint256",
          "name": "_pid",
          "type": "uint256"
        }
      ],
      "name": "emergencyWithdraw",
      "outputs": [],
      "stateMutability": "nonpayable",
      "type": "function"
    },
    {
      "inputs": [
        {
          "internalType": "uint256",
          "name": "_pid",
          "type": "uint256"
        },
        {
          "internalType": "uint256",
          "name": "_from",
          "type": "uint256"
        },
        {
          "internalType": "uint256",
          "name": "_to",
          "type": "uint256"
        }
      ],
      "name": "getMultiplier",
      "outputs": [
        {
          "internalType": "uint256",
          "name": "",
          "type": "uint256"
        }
      ],
      "stateMutability": "view",
      "type": "function"
    },
    {
      "inputs": [],
      "name": "massUpdatePools",
      "outputs": [],
      "stateMutability": "nonpayable",
      "type": "function"
    },
    {
      "inputs": [
        {
          "internalType": "address",
          "name": "_operator",
          "type": "address"
        },
        {
          "internalType": "address",
          "name": "_from",
          "type": "address"
        },
        {
          "internalType": "uint256",
          "name": "_amount",
          "type": "uint256"
        },
        {
          "internalType": "bytes",
          "name": "_data",
          "type": "bytes"
        }
      ],
      "name": "onKIP7Received",
      "outputs": [
        {
          "internalType": "bytes4",
          "name": "",
          "type": "bytes4"
        }
      ],
      "stateMutability": "pure",
      "type": "function"
    },
    {
      "inputs": [],
      "name": "owner",
      "outputs": [
        {
          "internalType": "address",
          "name": "",
          "type": "address"
        }
      ],
      "stateMutability": "view",
      "type": "function"
    },
    {
      "inputs": [
        {
          "internalType": "uint256",
          "name": "_pid",
          "type": "uint256"
        },
        {
          "internalType": "address",
          "name": "_user",
          "type": "address"
        }
      ],
      "name": "pendingPtn",
      "outputs": [
        {
          "internalType": "uint256",
          "name": "",
          "type": "uint256"
        }
      ],
      "stateMutability": "view",
      "type": "function"
    },
    {
      "inputs": [
        {
          "internalType": "uint256",
          "name": "",
          "type": "uint256"
        }
      ],
      "name": "poolInfo",
      "outputs": [
        {
          "internalType": "address",
          "name": "lpToken",
          "type": "address"
        },
        {
          "internalType": "uint32",
          "name": "bonusMultiplier",
          "type": "uint32"
        },
        {
          "internalType": "uint64",
          "name": "bonusEndBlock",
          "type": "uint64"
        },
        {
          "internalType": "uint256",
          "name": "totalStaked",
          "type": "uint256"
        },
        {
          "internalType": "uint64",
          "name": "allocPoint",
          "type": "uint64"
        },
        {
          "internalType": "uint64",
          "name": "lastRewardBlock",
          "type": "uint64"
        },
        {
          "internalType": "uint128",
          "name": "accPtnPerShare",
          "type": "uint128"
        }
      ],
      "stateMutability": "view",
      "type": "function"
    },
    {
      "inputs": [],
      "name": "poolLength",
      "outputs": [
        {
          "internalType": "uint256",
          "name": "",
          "type": "uint256"
        }
      ],
      "stateMutability": "view",
      "type": "function"
    },
    {
      "inputs": [],
      "name": "ptn",
      "outputs": [
        {
          "internalType": "contract IPlatformToken",
          "name": "",
          "type": "address"
        }
      ],
      "stateMutability": "view",
      "type": "function"
    },
    {
      "inputs": [],
      "name": "ptnPerBlock",
      "outputs": [
        {
          "internalType": "uint256",
          "name": "",
          "type": "uint256"
        }
      ],
      "stateMutability": "view",
      "type": "function"
    },
    {
      "inputs": [],
      "name": "renounceOwnership",
      "outputs": [],
      "stateMutability": "nonpayable",
      "type": "function"
    },
    {
      "inputs": [
        {
          "internalType": "uint256",
          "name": "_pid",
          "type": "uint256"
        },
        {
          "internalType": "uint256",
          "name": "_allocPoint",
          "type": "uint256"
        },
        {
          "internalType": "bool",
          "name": "_withUpdate",
          "type": "bool"
        }
      ],
      "name": "set",
      "outputs": [],
      "stateMutability": "nonpayable",
      "type": "function"
    },
    {
      "inputs": [],
      "name": "startBlock",
      "outputs": [
        {
          "internalType": "uint256",
          "name": "",
          "type": "uint256"
        }
      ],
      "stateMutability": "view",
      "type": "function"
    },
    {
      "inputs": [],
      "name": "totalAllocPoint",
      "outputs": [
        {
          "internalType": "uint256",
          "name": "",
          "type": "uint256"
        }
      ],
      "stateMutability": "view",
      "type": "function"
    },
    {
      "inputs": [
        {
          "internalType": "address",
          "name": "newOwner",
          "type": "address"
        }
      ],
      "name": "transferOwnership",
      "outputs": [],
      "stateMutability": "nonpayable",
      "type": "function"
    },
    {
      "inputs": [
        {
          "internalType": "uint256",
          "name": "_pid",
          "type": "uint256"
        },
        {
          "internalType": "uint256",
          "name": "_multiplier",
          "type": "uint256"
        }
      ],
      "name": "updateMultiplier",
      "outputs": [],
      "stateMutability": "nonpayable",
      "type": "function"
    },
    {
      "inputs": [
        {
          "internalType": "uint256",
          "name": "_pid",
          "type": "uint256"
        }
      ],
      "name": "updatePool",
      "outputs": [],
      "stateMutability": "nonpayable",
      "type": "function"
    },
    {
      "inputs": [
        {
          "internalType": "uint256",
          "name": "_ptnPerBlock",
          "type": "uint256"
        }
      ],
      "name": "updatePtnPerBlock",
      "outputs": [],
      "stateMutability": "nonpayable",
      "type": "function"
    },
    {
      "inputs": [
        {
          "internalType": "uint256",
          "name": "",
          "type": "uint256"
        },
        {
          "internalType": "address",
          "name": "",
          "type": "address"
        }
      ],
      "name": "userInfo",
      "outputs": [
        {
          "internalType": "uint256",
          "name": "amount",
          "type": "uint256"
        },
        {
          "internalType": "uint256",
          "name": "rewardDebt",
          "type": "uint256"
        }
      ],
      "stateMutability": "view",
      "type": "function"
    },
    {
      "inputs": [
        {
          "internalType": "uint256",
          "name": "_pid",
          "type": "uint256"
        },
        {
          "internalType": "uint256",
          "name": "_amount",
          "type": "uint256"
        }
      ],
      "name": "withdraw",
      "outputs": [],
      "stateMutability": "nonpayable",
      "type": "function"
    }
  ],
  "bytecode": "0x60806040523480156200001157600080fd5b5060405162001d0a38038062001d0a8339810160408190526200003491620000ea565b6200003f336200007d565b60018055600280546001600160a01b0319166001600160a01b0386161790556003839055600882905562000073816200007d565b5050505062000135565b600080546001600160a01b038381166001600160a01b0319831681178455604051919092169283917f8be0079c531659141344cd1fd0a4f28419497f9722a3daafe3b4186f6b6457e09190a35050565b80516001600160a01b0381168114620000e557600080fd5b919050565b600080600080608085870312156200010157600080fd5b6200010c85620000cd565b935060208501519250604085015191506200012a60608601620000cd565b905092959194509250565b611bc580620001456000396000f3fe608060405234801561001057600080fd5b506004361061014d5760003560e01c8063715018a6116100c35780639d188c221161007c5780639d188c2214610336578063af359b251461036d578063b4fdeaba14610380578063bad60f1814610389578063e2bbb1581461039c578063f2fde38b146103af57600080fd5b8063715018a61461026557806379d12ffb1461026d5780637bafb029146102a057806388a399f3146102b35780638da5cb5b146102de57806393f1a40b146102ef57600080fd5b806348d957e41161011557806348d957e4146101fe57806351eb05a6146102115780635312ea8e1461022457806362e006c714610237578063630b5ba11461024a57806364482f791461025257600080fd5b8063081e3eda146101525780631526fe271461016957806317caf6f1146101d7578063441a3e70146101e057806348cd4cb1146101f5575b600080fd5b6004545b6040519081526020015b60405180910390f35b61017c6101773660046117b9565b6103c2565b604080516001600160a01b03909816885263ffffffff90961660208801526001600160401b03948516958701959095526060860192909252821660808501521660a08301526001600160801b031660c082015260e001610160565b61015660075481565b6101f36101ee3660046117d2565b61043e565b005b61015660085481565b6101f361020c3660046117b9565b61066d565b6101f361021f3660046117b9565b6106da565b6101f36102323660046117b9565b610907565b6101f361024536600461181e565b610a3e565b6101f3610d1e565b6101f361026036600461186e565b610d45565b6101f3610eb3565b61029061027b3660046118a7565b60056020526000908152604090205460ff1681565b6040519015158152602001610160565b6101566102ae3660046118c2565b610ee9565b6002546102c6906001600160a01b031681565b6040516001600160a01b039091168152602001610160565b6000546001600160a01b03166102c6565b6103216102fd3660046118ee565b60066020908152600092835260408084209091529082529020805460019091015482565b60408051928352602083019190915201610160565b610354610344366004611930565b634e8c461160e11b949350505050565b6040516001600160e01b03199091168152602001610160565b61015661037b3660046118ee565b611088565b61015660035481565b6101f36103973660046117d2565b6111d1565b6101f36103aa3660046117d2565b61128d565b6101f36103bd3660046118a7565b611478565b600481815481106103d257600080fd5b60009182526020909120600390910201805460018201546002909201546001600160a01b0382169350600160a01b820463ffffffff1692600160c01b9092046001600160401b03908116929181811691600160401b82041690600160801b90046001600160801b031687565b6002600154141561046a5760405162461bcd60e51b815260040161046190611a0b565b60405180910390fd5b600260018190555060006004838154811061048757610487611a42565b6000918252602080832086845260068252604080852033865290925292208054600390920290920192508311156104f55760405162461bcd60e51b81526020600482015260126024820152711dda5d1a191c985dce881b9bdd0819dbdbd960721b6044820152606401610461565b6104fe846106da565b6001810154600283015482546000929164e8d4a510009161052f91600160801b90046001600160801b031690611a6e565b6105399190611a8d565b6105439190611aaf565b90508015610555576105553382611513565b83156105f3578382600001600082825461056f9190611aaf565b925050819055508383600101600082825461058a9190611aaf565b9091555050825460405163423f6cef60e01b8152336004820152602481018690526001600160a01b039091169063423f6cef90604401600060405180830381600087803b1580156105da57600080fd5b505af11580156105ee573d6000803e3d6000fd5b505050505b6002830154825464e8d4a510009161061c91600160801b9091046001600160801b031690611a6e565b6106269190611a8d565b6001830155604051848152859033907ff279e6a1f5e320cca91135676d9cb6e44ca8a08c0b88342bcdb1144f6511b5689060200160405180910390a3505060018055505050565b6000546001600160a01b031633146106975760405162461bcd60e51b815260040161046190611ac6565b61069f610d1e565b60038190556040518181527fc606f355efeddd89e42e997e575220501445590def6dd71bf081c2c51d6c0a4d9060200160405180910390a150565b6000600482815481106106ef576106ef611a42565b906000526020600020906003020190508060020160089054906101000a90046001600160401b03166001600160401b0316431115610903576001810154801561086b576002820154600090610756908590600160401b90046001600160401b031643610ee9565b60075460028501546003549293506000926001600160401b039091169061077d9085611a6e565b6107879190611a6e565b6107919190611a8d565b6002546040516340c10f1960e01b8152306004820152602481018390529192506001600160a01b0316906340c10f19906044016020604051808303816000875af11580156107e3573d6000803e3d6000fd5b505050506040513d601f19601f820116820180604052508101906108079190611afb565b5061082a8361081b64e8d4a5100084611a6e565b6108259190611a8d565b61162f565b60028501546108499190600160801b90046001600160801b0316611b18565b6002850180546001600160801b03928316600160801b02921691909117905550505b6108744361169c565b6002830180546fffffffffffffffff00000000000000001916600160401b6001600160401b039384168102919091179182905560408051918304909316815260208101849052600160801b9091046001600160801b03169181019190915283907f3be3541fc42237d611b30329040bfa4569541d156560acdbbae57640d20b8f469060600160405180910390a2505b5050565b6002600154141561092a5760405162461bcd60e51b815260040161046190611a0b565b600260018190555060006004828154811061094757610947611a42565b600091825260208083208584526006825260408085203386529092529083208054600393909302909101600181018054919550919383929161098a908490611aaf565b909155505060008083556001830155825460405163423f6cef60e01b8152336004820152602481018390526001600160a01b039091169063423f6cef90604401600060405180830381600087803b1580156109e457600080fd5b505af11580156109f8573d6000803e3d6000fd5b50506040518381528692503391507fbb757047c2b5f3974fe26b7c10f732e7bce710b0952a71082702781e62ae0595906020015b60405180910390a35050600180555050565b6000546001600160a01b03163314610a685760405162461bcd60e51b815260040161046190611ac6565b6002546001600160a01b0385811691161415610ac65760405162461bcd60e51b815260206004820152601860248201527f43616e2774207374616b652072657761726420746f6b656e00000000000000006044820152606401610461565b6001600160a01b03841660009081526005602052604090205460ff1615610b255760405162461bcd60e51b8152602060048201526013602482015272151bdad95b88185b1c9958591e481859191959606a1b6044820152606401610461565b8215610b3357610b33610d1e565b60006008544311610b4657600854610b48565b435b905085600754610b589190611b43565b60078190555060046040518060e00160405280876001600160a01b03168152602001610b8386611704565b63ffffffff168152602001610b978561169c565b6001600160401b0316815260200160008152602001610bb58961169c565b6001600160401b03168152602001610bcc8461169c565b6001600160401b0390811682526000602092830181905284546001818101875595825283822085516003909202018054868601516040808901518716600160c01b026001600160c01b0363ffffffff909316600160a01b026001600160c01b03199094166001600160a01b0396871617939093179190911691909117825560608701518289015560808701516002909201805460a089015160c0909901516001600160801b03908116600160801b02998816600160401b026fffffffffffffffffffffffffffffffff19909216949097169390931792909217909416959095179094559289168084526005909252909120805460ff1916831790556004549091610cd591611aaf565b60408051898152602081018790529081018590527fcb295bb60abeeb687f819f8557e33080c20eb264bce90585dd400e011adaceaf9060600160405180910390a3505050505050565b60045460005b8181101561090357610d35816106da565b610d3e81611b5b565b9050610d24565b6000546001600160a01b03163314610d6f5760405162461bcd60e51b815260040161046190611ac6565b8015610d7d57610d7d610d1e565b600060048481548110610d9257610d92611a42565b60009182526020909120600260039092020101546001600160401b03169050828114610e7357610dc18361169c565b60048581548110610dd457610dd4611a42565b906000526020600020906003020160020160006101000a8154816001600160401b0302191690836001600160401b031602179055508281600754610e189190611aaf565b610e229190611b43565b6007819055610e735760405162461bcd60e51b815260206004820152601860248201527f53686f756c64206265206d6f7265207468616e207a65726f00000000000000006044820152606401610461565b837fc0cfd54d2de2b55f1e6e108d3ec53ff0a1abe6055401d32c61e9433b747ef9f884604051610ea591815260200190565b60405180910390a250505050565b6000546001600160a01b03163314610edd5760405162461bcd60e51b815260040161046190611ac6565b610ee76000611769565b565b600060048481548110610efe57610efe611a42565b6000918252602090912060039091020154600160c01b90046001600160401b03168211610f715760048481548110610f3857610f38611a42565b6000918252602090912060039091020154600160a01b900463ffffffff16610f608484611aaf565b610f6a9190611a6e565b9050611081565b60048481548110610f8457610f84611a42565b6000918252602090912060039091020154600160c01b90046001600160401b03168310610fb557610f6a8383611aaf565b60048481548110610fc857610fc8611a42565b6000918252602090912060039091020154610ff390600160c01b90046001600160401b031683611aaf565b6004858154811061100657611006611a42565b906000526020600020906003020160000160149054906101000a900463ffffffff1663ffffffff16846004878154811061104257611042611a42565b600091825260209091206003909102015461106d9190600160c01b90046001600160401b0316611aaf565b6110779190611a6e565b610f6a9190611b43565b9392505050565b6000806004848154811061109e5761109e611a42565b600091825260208083208784526006825260408085206001600160a01b0389168652909252922060039190910290910160028101546001820154919350600160801b81046001600160801b03169190600160401b90046001600160401b03164311801561110a57508015155b15611199576002840154600090611133908990600160401b90046001600160401b031643610ee9565b60075460028701546003549293506000926001600160401b039091169061115a9085611a6e565b6111649190611a6e565b61116e9190611a8d565b90508261118064e8d4a5100083611a6e565b61118a9190611a8d565b6111949085611b43565b935050505b6001830154835464e8d4a51000906111b2908590611a6e565b6111bc9190611a8d565b6111c69190611aaf565b979650505050505050565b6000546001600160a01b031633146111fb5760405162461bcd60e51b815260040161046190611ac6565b611204826106da565b61120d81611704565b6004838154811061122057611220611a42565b906000526020600020906003020160000160146101000a81548163ffffffff021916908363ffffffff160217905550817f3218a9351994eb41cf8301b9004b97dcff092f8e7a7e0c498c606bc09329e8698260405161128191815260200190565b60405180910390a25050565b600260015414156112b05760405162461bcd60e51b815260040161046190611a0b565b60026001819055506000600483815481106112cd576112cd611a42565b600091825260208083208684526006825260408085203386529092529220600390910290910191506112fe846106da565b8215801561130c5750805415155b1561136a576001810154600283015482546000929164e8d4a510009161134291600160801b90046001600160801b031690611a6e565b61134c9190611a8d565b6113569190611aaf565b90508015611368576113683382611513565b505b821561140c578154604051632142170760e11b8152336004820152306024820152604481018590526001600160a01b03909116906342842e0e90606401600060405180830381600087803b1580156113c157600080fd5b505af11580156113d5573d6000803e3d6000fd5b50505050828260010160008282546113ed9190611b43565b9091555050805483908290600090611406908490611b43565b90915550505b6002820154815464e8d4a510009161143591600160801b9091046001600160801b031690611a6e565b61143f9190611a8d565b6001820155604051838152849033907f90890809c654f11d6e72a28fa60149770a0d11ec6c92319d6ceb2bb0a4ea1a1590602001610a2c565b6000546001600160a01b031633146114a25760405162461bcd60e51b815260040161046190611ac6565b6001600160a01b0381166115075760405162461bcd60e51b815260206004820152602660248201527f4f776e61626c653a206e6577206f776e657220697320746865207a65726f206160448201526564647265737360d01b6064820152608401610461565b61151081611769565b50565b6002546040516370a0823160e01b81523060048201526000916001600160a01b0316906370a0823190602401602060405180830381865afa15801561155c573d6000803e3d6000fd5b505050506040513d601f19601f820116820180604052508101906115809190611b76565b9050808211156115f65760025460405163423f6cef60e01b81526001600160a01b038581166004830152602482018490529091169063423f6cef906044015b600060405180830381600087803b1580156115d957600080fd5b505af11580156115ed573d6000803e3d6000fd5b50505050505050565b60025460405163423f6cef60e01b81526001600160a01b038581166004830152602482018590529091169063423f6cef906044016115bf565b60006001600160801b038211156116985760405162461bcd60e51b815260206004820152602760248201527f53616665436173743a2076616c756520646f65736e27742066697420696e20316044820152663238206269747360c81b6064820152608401610461565b5090565b60006001600160401b038211156116985760405162461bcd60e51b815260206004820152602660248201527f53616665436173743a2076616c756520646f65736e27742066697420696e203660448201526534206269747360d01b6064820152608401610461565b600063ffffffff8211156116985760405162461bcd60e51b815260206004820152602660248201527f53616665436173743a2076616c756520646f65736e27742066697420696e203360448201526532206269747360d01b6064820152608401610461565b600080546001600160a01b038381166001600160a01b0319831681178455604051919092169283917f8be0079c531659141344cd1fd0a4f28419497f9722a3daafe3b4186f6b6457e09190a35050565b6000602082840312156117cb57600080fd5b5035919050565b600080604083850312156117e557600080fd5b50508035926020909101359150565b80356001600160a01b038116811461180b57600080fd5b919050565b801515811461151057600080fd5b600080600080600060a0868803121561183657600080fd5b85359450611846602087016117f4565b9350604086013561185681611810565b94979396509394606081013594506080013592915050565b60008060006060848603121561188357600080fd5b8335925060208401359150604084013561189c81611810565b809150509250925092565b6000602082840312156118b957600080fd5b611081826117f4565b6000806000606084860312156118d757600080fd5b505081359360208301359350604090920135919050565b6000806040838503121561190157600080fd5b82359150611911602084016117f4565b90509250929050565b634e487b7160e01b600052604160045260246000fd5b6000806000806080858703121561194657600080fd5b61194f856117f4565b935061195d602086016117f4565b92506040850135915060608501356001600160401b038082111561198057600080fd5b818701915087601f83011261199457600080fd5b8135818111156119a6576119a661191a565b604051601f8201601f19908116603f011681019083821181831017156119ce576119ce61191a565b816040528281528a60208487010111156119e757600080fd5b82602086016020830137600060208483010152809550505050505092959194509250565b6020808252601f908201527f5265656e7472616e637947756172643a207265656e7472616e742063616c6c00604082015260600190565b634e487b7160e01b600052603260045260246000fd5b634e487b7160e01b600052601160045260246000fd5b6000816000190483118215151615611a8857611a88611a58565b500290565b600082611aaa57634e487b7160e01b600052601260045260246000fd5b500490565b600082821015611ac157611ac1611a58565b500390565b6020808252818101527f4f776e61626c653a2063616c6c6572206973206e6f7420746865206f776e6572604082015260600190565b600060208284031215611b0d57600080fd5b815161108181611810565b60006001600160801b03808316818516808303821115611b3a57611b3a611a58565b01949350505050565b60008219821115611b5657611b56611a58565b500190565b6000600019821415611b6f57611b6f611a58565b5060010190565b600060208284031215611b8857600080fd5b505191905056fea2646970667358221220ea966c3e40394eb91225746561fe0703902b2c0995f9063e8cb5231dd9def3e564736f6c634300080c0033",
  "linkReferences": {},
  "deployedLinkReferences": {}
}